:1000000071C000008FC000008DC000008BC00000D8
:1000100089C0000087C0000085C0000083C00000C8
:1000200081C000007FC000007DC000007BC00000D8
:1000300079C0000077C0000075C0000073C00000E8
:1000400071C000006FC000006DC000006BC00000F8
:1000500069C0000067C0000065C0000063C0000008
:1000600061C000005FC000005DC000005BC0000018
:1000700059C0000057C0000055C0000053C0000028
:1000800051C000004FC000004DC000004BC0000038
:1000900049C0000047C0000045C0000043C0000048
:1000A00041C000003FC000003DC000003BC0000058
:1000B00039C0000037C0000035C0000033C0000068
:1000C00031C000002FC000002DC000001CC1000086
:1000D00029C0000027C0000025C0000023C0000088
:1000E00021C0000011241FBECFEFD1E2DEBFCDBF83
:1000F00000E00CBF12E0A0E0B2E0E2E2FAE100E0D2
:100100000BBF02C007900D92A630B107D9F722E0CD
:10011000A6E0B2E001C01D92AC38B207E1F77DD194
:100120000C940F0D6DCFCF93DF93CDB7DEB72E9725
:100130000FB6F894DEBF0FBECDBF1092070210922B
:10014000060288C08091060290910702865F9D4F4B
:10015000FC018081482F61E081E00E94EE0980E08F
:1001600090E0A8E4B4E489839A83AB83BC8326E659
:1001700036E646E655E469817A818B819C810E944E
:10018000460CDC01CB018D839E83AF83B88720E0D2
:1001900030E040E85FE36D817E818F8198850E9429
:1001A000C50B88232CF481E090E09A8789873FC0B3
:1001B00020E03FEF4FE757E46D817E818F81988586
:1001C0000E94420C18164CF520E030E040E251E469
:1001D00069817A818B819C810E94460CDC01CB0174
:1001E000BC01CD010E94C90BDC01CB019A87898734
:1001F0000FC080E791E09C878B878B859C8501975A
:10020000F1F79C878B8789859A8501979A878987DB
:1002100089859A85892B69F714C06D817E818F81CC
:1002200098850E94C90BDC01CB019A878987898553
:100230009A859E878D878D859E850197F1F79E878C
:100240008D87809106029091070201969093070294
:10025000809306028091060290910702865F9D4F6F
:10026000FC018081853209F06DCF10920702109257
:10027000060213C0809106029091070280509E4FA3
:10028000FC0180810E94A60B8091060290910702DA
:100290000196909307028093060280910602909146
:1002A000070203973CF300002E960FB6F894DEBFCA
:1002B0000FBECDBFDF91CF910895CF93DF93CDB720
:1002C000DEB7109207021092060213C08091060258
:1002D0009091070280509E4FFC0180810E94A60BE6
:1002E00080910602909107020196909307028093F5
:1002F0000602809106029091070203973CF30000EA
:10030000DF91CF9108951F920F9200905F000F929E
:10031000112400905B000F920F931F932F933F9334
:100320004F935F936F937F938F939F93AF93BF93FD
:10033000EF93FF93CF93DF93CDB7DEB786ED90E0D9
:10034000FC0180818093050280910502843209F0CE
:1003500045C00E94940B809309020E94940B8093E5
:10036000080210920702109206021FC000910602B6
:10037000109107020E94940B282FC801865F9D4FA1
:10038000FC0120838091060290910702865F9D4FB9
:10039000FC018081853289F08091060290910702EC
:1003A0000196909307028093060280910602909135
:1003B000070282389105D4F201C000008091090241
:1003C000482F61E082E00E94EE0980910802482FE8
:1003D00062E082E00E94EE09A6DE05C0809105027F
:1003E000833209F46ADF0000DF91CF91FF91EF9132
:1003F000BF91AF919F918F917F916F915F914F913D
:100400003F912F911F910F910F9000925B000F90E1
:1004100000925F000F901F901895CF93DF93CDB798
:10042000DEB780E895E20E945A0B02D01CD7FFCFBE
:10043000CF93DF93CDB7DEB787E290E027E230E0DD
:10044000F90120812760FC01208387E290E027E208
:1004500030E0F9012081206FFC01208388E290E0E8
:1004600028E230E0F9012081287FFC01208388E226
:1004700090E028E230E0F90120812F70FC01208318
:100480000000DF91CF9108950F931F93CF93DF93D7
:10049000CDB7DEB7C057D1090FB6F894DEBF0FBE97
:1004A000CDBF80E090E0A0E8BFE389839A83AB836F
:1004B000BC838E0109591F4F26E636E646E655E411
:1004C00069817A818B819C810E94460CDC01CB0181
:1004D000F80180839183A283B383CE0189599F4F12
:1004E00020E030E040E85FE3FC01608171818281BF
:1004F00093810E94C50B88234CF4CE0185599F4FF0
:1005000021E030E0FC013183208369C0CE018959AC
:100510009F4F20E03FEF4FE757E4FC01608171817E
:10052000828193810E94420C18160CF046C020E094
:1005300030E040E251E469817A818B819C810E94A4
:10054000460CDC01CB018E0105591F4FBC01CD01CA
:100550000E94C90BDC01CB01F8019183808324C088
:10056000CE0183599F4F20E731E0FC013183208386
:10057000CE0183599F4FFC01808191810197F1F752
:100580009E0123593F4FF90191838083CE01855904
:100590009F4F9E0125593F4FF90120813181215004
:1005A0003109FC0131832083CE0185599F4FFC0125
:1005B00080819181892BA1F62CC08E0105591F4F96
:1005C000CE0189599F4FFC016081718182819381A5
:1005D0000E94C90BDC01CB01F80191838083CE011D
:1005E00081599F4F9E0125593F4FF901208131814B
:1005F000FC0131832083CE0181599F4FFC01808112
:1006000091810197F1F79E0121593F4FF9019183A3
:10061000808388E290E028E230E0F90120812E7F9B
:10062000FC01208388E290E028E230E0F90120819B
:100630002D7FFC01208388E290E020E3FC012083F1
:1006400088E290E028E230E0F90120812460FC019A
:10065000208380E090E0A0EAB0E48D839E83AF83A6
:10066000B8878E01035A1F4F26E636E646E655E464
:100670006D817E818F8198850E94460CDC01CB01C3
:10068000F80180839183A283B383CE01835A9F4F65
:1006900020E030E040E85FE3FC016081718182810D
:1006A00093810E94C50B88234CF4CE018F599F4F34
:1006B00021E030E0FC013183208369C0CE01835A00
:1006C0009F4F20E03FEF4FE757E4FC0160817181CD
:1006D000828193810E94420C18160CF046C020E0E3
:1006E00030E040E251E46D817E818F8198850E94E7
:1006F000460CDC01CB018E010F591F4FBC01CD010F
:100700000E94C90BDC01CB01F8019183808324C0D6
:10071000CE018D599F4F20E731E0FC0131832083CA
:10072000CE018D599F4FFC01808191810197F1F796
:100730009E012D593F4FF90191838083CE018F593E
:100740009F4F9E012F593F4FF90120813181215048
:100750003109FC0131832083CE018F599F4FFC0169
:1007600080819181892BA1F62CC08E010F591F4FDA
:10077000CE01835A9F4FFC016081718182819381F8
:100780000E94C90BDC01CB01F80191838083CE016B
:100790008B599F4F9E012F593F4FF9012081318185
:1007A000FC0131832083CE018B599F4FFC01808156
:1007B00091810197F1F79E012B593F4FF9019183E8
:1007C000808388E290E028E230E0F90120812B7FED
:1007D000FC01208380E090E0A0E8BFE389879A874E
:1007E000AB87BC878E010D5A1F4F26E636E646E6DC
:1007F00055E469857A858B859C850E94460CDC01D1
:10080000CB01F80180839183A283B383CE018D5AFB
:100810009F4F20E030E040E85FE3FC0160817181A0
:1008200082819381B2D788234CF4CE01895A9F4F9D
:1008300021E030E0FC013183208367C0CE018D5A76
:100840009F4F20E03FEF4FE757E4FC01608171814B
:10085000828193810E94420C18160CF045C020E062
:1008600030E040E251E469857A858B859C850E9461
:10087000460CDC01CB018E01095A1F4FBC01CD0192
:1008800088D7DC01CB01F8019183808324C0CE019D
:10089000875A9F4F20E731E0FC0131832083CE014E
:1008A000875A9F4FFC01808191810197F1F79E014A
:1008B000275A3F4FF90191838083CE01895A9F4F78
:1008C0009E01295A3F4FF901208131812150310980
:1008D000FC0131832083CE01895A9F4FFC01808126
:1008E0009181892BA1F62BC08E01095A1F4FCE0191
:1008F0008D5A9F4FFC01608171818281938149D71C
:10090000DC01CB01F80191838083CE01855A9F4F92
:100910009E01295A3F4FF90120813181FC01318329
:100920002083CE01855A9F4FFC01808191810197E0
:10093000F1F79E01255A3F4FF9019183808388E2A8
:1009400090E028E230E0F90120812E7FFC01208335
:1009500088E290E028E230E0F90120812D7FFC015F
:10096000208388E290E020E3FC01208388E290E08D
:1009700028E230E0F90120812460FC01208380E03E
:1009800090E0A0EAB0E48D879E87AF87B88B8E0198
:10099000075B1F4F26E636E646E655E46D857E8505
:1009A0008F85988973D7DC01CB01F801808391830F
:1009B000A283B383CE01875B9F4F20E030E040E805
:1009C0005FE3FC016081718182819381DED688239F
:1009D0004CF4CE01835B9F4F21E030E0FC0131837A
:1009E000208365C0CE01875B9F4F20E03FEF4FE73C
:1009F00057E4FC01608171818281938143D718168D
:100A00000CF044C020E030E040E251E46D857E858A
:100A10008F8598893BD7DC01CB018E01035B1F4F8B
:100A2000BC01CD01B6D6DC01CB01F80191838083F6
:100A300024C0CE01815B9F4F20E731E0FC01318370
:100A40002083CE01815B9F4FFC01808191810197C2
:100A5000F1F79E01215B3F4FF90191838083CE0125
:100A6000835B9F4F9E01235B3F4FF90120813181C2
:100A700021503109FC0131832083CE01835B9F4FDC
:100A8000FC0180819181892BA1F62BC08E01035B33
:100A90001F4FCE01875B9F4FFC0160817181828176
:100AA000938177D6DC01CB01F80191838083CE015D
:100AB0008F5A9F4F9E01235B3F4FF9012081318167
:100AC000FC0131832083CE018F5A9F4FFC0180812E
:100AD00091810197F1F79E012F5A3F4FF9019183C0
:100AE000808388E290E028E230E0F90120812B7FCA
:100AF000FC01208380E090E0A0E8BFE3898B9A8B23
:100B0000AB8BBC8B8E01015C1F4F26E636E646E6BA
:100B100055E469897A898B899C89B8D6DC01CB0137
:100B2000F80180839183A283B383CE01CF9620E026
:100B300030E040E85FE3FC01608171818281938154
:100B400024D688234CF4CE018D5B9F4F21E030E00A
:100B5000FC013183208363C0CE01CF9620E03FEFBC
:100B60004FE757E4FC0160817181828193818AD6CD
:100B700018160CF044C020E030E040E251E46989EE
:100B80007A898B899C8982D6DC01CB018E010D5B31
:100B90001F4FBC01CD01FDD5DC01CB01F8019183D4
:100BA000808324C0CE018B5B9F4F20E731E0FC01A6
:100BB00031832083CE018B5B9F4FFC01808191812B
:100BC0000197F1F79E012B5B3F4FF90191838083E1
:100BD000CE018D5B9F4F9E012D5B3F4FF901208120
:100BE000318121503109FC0131832083CE018D5B9D
:100BF0009F4FFC0180819181892BA1F62AC08E0133
:100C00000D5B1F4FCE01CF96FC0160817181828107
:100C10009381BFD5DC01CB01F80191838083CE01A4
:100C2000895B9F4F9E012D5B3F4FF90120813181F0
:100C3000FC0131832083CE01895B9F4FFC018081C1
:100C400091810197F1F79E01295B3F4FF901918353
:100C5000808388E290E028E230E0F90120812E7F55
:100C6000FC01208388E290E028E230E0F901208155
:100C70002D7FFC01208388E290E020E3FC012083AB
:100C800088E290E028E230E0F90120812460FC0154
:100C9000208380E090E0A0EAB0E48D8B9E8BAF8B48
:100CA000B88F26E636E646E655E46D897E898F895B
:100CB000988DECD5DC01CB018DAB9EABAFABB8AF63
:100CC00020E030E040E85FE36DA97EA98FA998ADF0
:100CD0005CD588232CF481E090E09AAF89AF3BC0CB
:100CE00020E03FEF4FE757E46DA97EA98FA998ADAB
:100CF000C9D518163CF520E030E040E251E46D899A
:100D00007E898F89988DC2D5DC01CB01BC01CD01D4
:100D100040D5DC01CB019AAF89AF0FC080E791E0ED
:100D20009CAF8BAF8BAD9CAD0197F1F79CAF8BAFB8
:100D300089AD9AAD01979AAF89AF89AD9AAD892BEC
:100D400069F713C06DA97EA98FA998AD22D5DC01E2
:100D5000CB019AAF89AF89AD9AAD9EAF8DAF8DAD06
:100D60009EAD0197F1F79EAF8DAF88E290E028E24B
:100D700030E0F90120812B7FFC01208380E090E0AE
:100D8000A0E8BFE3898F9A8FAB8FBC8F26E636E64B
:100D900046E655E4698D7A8D8B8D9C8D77D5DC0187
:100DA000CB018BA79CA7ADA7BEA720E030E040E811
:100DB0005FE36BA57CA58DA59EA5E7D488232CF4C5
:100DC00081E090E098AB8FA73BC020E03FEF4FE77A
:100DD00057E46BA57CA58DA59EA554D518163CF5AA
:100DE00020E030E040E251E4698D7A8D8B8D9C8D5E
:100DF0004DD5DC01CB01BC01CD01CBD4DC01CB0155
:100E000098AB8FA70FC080E791E09AAB89AB89A917
:100E10009AA90197F1F79AAB89AB8FA598A9019789
:100E200098AB8FA78FA598A9892B69F713C06BA5DD
:100E30007CA58DA59EA5ADD4DC01CB0198AB8FA779
:100E40008FA598A99CAB8BAB8BA99CA90197F1F7B7
:100E50009CAB8BAB88E290E028E230E0F901208186
:100E60002E7FFC01208388E290E028E230E0F90147
:100E700020812D7FFC01208388E290E020E2FC01AC
:100E8000208388E290E028E230E0F90120812460AC
:100E9000FC01208380E090E0A0EAB0E48D8F9E8F7B
:100EA000AF8FB8A326E636E646E655E46D8D7E8D17
:100EB0008F8D98A1EBD4DC01CB0189A39AA3ABA3BE
:100EC000BCA320E030E040E85FE369A17AA18BA1F8
:100ED0009CA15BD488232CF481E090E09EA38DA399
:100EE0003BC020E03FEF4FE757E469A17AA18BA117
:100EF0009CA1C8D418163CF520E030E040E251E453
:100F00006D8D7E8D8F8D98A1C1D4DC01CB01BC018C
:100F1000CD013FD4DC01CB019EA38DA30FC080E7A0
:100F200091E098A78FA38FA198A50197F1F798A7B3
:100F30008FA38DA19EA101979EA38DA38DA19EA19C
:100F4000892B69F713C069A17AA18BA19CA121D437
:100F5000DC01CB019EA38DA38DA19EA19AA789A799
:100F600089A59AA50197F1F79AA789A788E290E049
:100F700028E230E0F90120812B7FFC012083000072
:100F8000C059DF4F0FB6F894DEBF0FBECDBFDF9163
:100F9000CF911F910F910895CF93DF93CDB7DEB717
:100FA0006E970FB6F894DEBF0FBECDBF8E8F8E8DBD
:100FB00089838981807F898388E290E028E230E01C
:100FC000F90120812F70FC01208388E290E028E263
:100FD00030E0F90130812981232BFC01208388E254
:100FE00090E028E230E0F90120812E7FFC0120838F
:100FF00088E290E028E230E0F90120812D7FFC01B9
:10100000208388E290E028E230E0F901208124602A
:10101000FC01208380E090E0A0EAB0E48A839B8317
:10102000AC83BD8326E636E646E655E46A817B81DD
:101030008C819D812BD4DC01CB018C8B9D8BAE8B65
:10104000BF8B20E030E040E85FE36C897D898E89CA
:101050009F899BD388232CF481E090E0998F888F1F
:101060003BC020E03FEF4FE757E46C897D898E89D4
:101070009F8908D418163CF520E030E040E251E4A6
:101080006A817B818C819D8101D4DC01CB01BC0113
:10109000CD017FD3DC01CB01998F888F0FC080E712
:1010A00091E09B8F8A8F8A8D9B8D0197F1F79B8FA3
:1010B0008A8F888D998D0197998F888F888D998DCA
:1010C000892B69F713C06C897D898E899F8961D3CB
:1010D000DC01CB01998F888F888D998D9D8F8C8FA6
:1010E0008C8D9D8D0197F1F79D8F8C8F88E290E01C
:1010F00028E230E0F90120812B7FFC0120838E8DD6
:101100008F708E8F8E8D8295807F8E8F88E290E09B
:1011100028E230E0F90120812F70FC01208388E271
:1011200090E028E230E0F90130812E8D232BFC0184
:10113000208388E290E028E230E0F90120812E7FD0
:10114000FC01208388E290E028E230E0F901208170
:101150002D7FFC01208388E290E028E230E0F90155
:1011600020812460FC01208380E090E0A0EAB0E4CC
:101170008E839F83A887B98726E636E646E655E440
:101180006E817F818885998581D3DC01CB018A8737
:101190009B87AC87BD8720E030E040E85FE36A854D
:1011A0007B858C859D85F1D288232CF481E090E0AD
:1011B0009F878E873BC020E03FEF4FE757E46A856B
:1011C0007B858C859D855ED318163CF520E030E04C
:1011D00040E251E46E817F818885998557D3DC0197
:1011E000CB01BC01CD01D5D2DC01CB019F878E871D
:1011F0000FC080E791E0998B888B88899989019746
:10120000F1F7998B888B8E859F8501979F878E87B5
:101210008E859F85892B69F713C06A857B858C85B0
:101220009D85B7D2DC01CB019F878E878E859F85F8
:101230009B8B8A8B8A899B890197F1F79B8B8A8B81
:1012400088E290E028E230E0F90120812B7FFC0168
:10125000208300006E960FB6F894DEBF0FBECDBFA0
:10126000DF91CF910895CF93DF93CDB7DEB72E975F
:101270000FB6F894DEBF0FBECDBF06D980E090E078
:10128000A0E8BFE389839A83AB83BC8326E636E676
:1012900046E655E469817A818B819C81F7D2DC0135
:1012A000CB018D839E83AF83B88720E030E040E898
:1012B0005FE36D817E818F81988567D288232CF4CE
:1012C00081E090E09A8789873BC020E03FEF4FE7BD
:1012D00057E46D817E818F819885D4D218163CF5B4
:1012E00020E030E040E251E469817A818B819C8189
:1012F000CDD2DC01CB01BC01CD014BD2DC01CB0155
:101300009A8789870FC080E791E09C878B878B85C0
:101310009C850197F1F79C878B8789859A85019732
:101320009A87898789859A85892B69F713C06D818A
:101330007E818F8198852DD2DC01CB019A878987A8
:1013400089859A859E878D878D859E850197F1F782
:101350009E878D8788E220DE81E01EDE86E01CDE2F
:101360008EE01ADE80E818DE00002E960FB6F894A4
:10137000DEBF0FBECDBFDF91CF910895CF93DF9336
:101380001F921F92CDB7DEB789836A838981882F28
:1013900090E08230910581F0833091051CF4019733
:1013A00039F016C08330910559F0049769F010C0E8
:1013B0008A818158F1DD0CC08A818154EDDD08C03D
:1013C0008A818D56E9DD04C08A818D52E5DD0000F9
:1013D00000000F900F90DF91CF910895CF93DF938E
:1013E000CDB7DEB7A0970FB6F894DEBF0FBECDBF66
:1013F0008E8F6F8F48A36F8D8E8DC0DF88A18983FC
:101400008981807F898388E290E028E230E0F901D9
:1014100020812F70FC01208388E290E028E230E0F8
:10142000F90130812981232BFC01208388E290E09F
:1014300028E230E0F90120812160FC01208388E26C
:1014400090E028E230E0F90120812D7FFC0120832B
:1014500088E290E028E230E0F90120812460FC017C
:10146000208380E090E0A0EAB0E48A839B83AC8391
:10147000BD8326E636E646E655E46A817B818C81AB
:101480009D8104D2DC01CB018C8B9D8BAE8BBF8BFD
:1014900020E030E040E85FE36C897D898E899F8998
:1014A00074D188232CF481E090E0998F888F3BC021
:1014B00020E03FEF4FE757E46C897D898E899F8953
:1014C000E1D118163CF520E030E040E251E46A81B9
:1014D0007B818C819D81DAD1DC01CB01BC01CD0106
:1014E00058D1DC01CB01998F888F0FC080E791E044
:1014F0009B8F8A8F8A8D9B8D0197F1F79B8F8A8FA7
:10150000888D998D0197998F888F888D998D892BDA
:1015100069F713C06C897D898E899F893AD1DC0176
:10152000CB01998F888F888D998D9D8F8C8F8C8D15
:101530009D8D0197F1F79D8F8C8F88E290E028E2D6
:1015400030E0F90120812B7FFC01208388A18F707E
:1015500088A388A18295807F88A388E290E028E212
:1015600030E0F90120812F70FC01208388E290E0B7
:1015700028E230E0F901308128A1232BFC012083EF
:1015800088E290E028E230E0F90120812160FC014E
:10159000208388E290E028E230E0F90120812D7F6D
:1015A000FC01208388E290E028E230E0F90120810C
:1015B0002460FC01208380E090E0A0EAB0E48E8308
:1015C0009F83A887B98726E636E646E655E46E810E
:1015D0007F81888599855AD1DC01CB018A879B87D9
:1015E000AC87BD8720E030E040E85FE36A857B851B
:1015F0008C859D85CAD088232CF481E090E09F875C
:101600008E873BC020E03FEF4FE757E46A857B853C
:101610008C859D8537D118163CF520E030E040E2FE
:1016200051E46E817F818885998530D1DC01CB01C1
:10163000BC01CD01AED0DC01CB019F878E870FC0EE
:1016400080E791E0998B888B888999890197F1F7D8
:10165000998B888B8E859F8501979F878E878E8536
:101660009F85892B69F713C06A857B858C859D854D
:1016700090D0DC01CB019F878E878E859F859B8BC9
:101680008A8B8A899B890197F1F79B8B8A8B88E2E9
:1016900090E028E230E0F90120812B7FFC012083DB
:1016A0000000A0960FB6F894DEBF0FBECDBFDF914D
:1016B000CF910895CF93DF9300D01F92CDB7DEB7BF
:1016C0009C838B83F8948B819C819C0140E050E04B
:1016D00080E090E1AEE0B0E0BC01CD0162D1DA0182
:1016E000C90101979A83898385ED90E029813A8128
:1016F000232F3327FC01208384ED90E02981FC0116
:10170000208381ED90E028E9FC01208382EC90E0C9
:1017100026E0FC012083789400000F900F900F903A
:101720000F90DF91CF910895CF93DF93CDB7DEB7C0
:10173000000080ED90E0FC0180818823D4F786EDE5
:1017400090E0FC018081DF91CF910895CF93DF93EA
:101750001F92CDB7DEB78983498165E082E03EDE26
:10176000000080ED90E0FC018081882F90E0807285
:101770009927892BB1F386ED90E02981FC01208324
:1017800000000F90DF91CF9108952FD008F481E0F1
:10179000089557D088F09F5790F0B92F9927B751E7
:1017A000A0F0D1F0660F771F881F991F1AF0BA9525
:1017B000C9F712C0B13081F05ED0B1E008955BC0CE
:1017C000672F782F8827B85F39F0B93FCCF386951B
:1017D00077956795B395D9F73EF490958095709578
:1017E00061957F4F8F4F9F4F0895990F0008550FB8
:1017F000AA0BE0E8FEEF16161706E807F907C0F097
:1018000012161306E407F50798F0621B730B840B9E
:10181000950B39F40A2661F0232B242B252B21F478
:1018200008950A2609F4A140A6958FEF811D811D18
:10183000089557FD9058440F551F59F05F3F71F0C0
:101840004795880F97FB991F61F09F3F79F0879527
:101850000895121613061406551FF2CF4695F1DFB0
:1018600008C0161617061806991FF1CF8695710540
:10187000610508940895E894BB2766277727CB0174
:1018800097F90895B2DF08F48FEF08950BD078C070
:1018900069D028F06ED018F0952309F05AC05FC0C7
:1018A0001124EACFC6DFA0F3959FD1F3950F50E046
:1018B000551F629FF001729FBB27F00DB11D639F02
:1018C000AA27F00DB11DAA1F649F6627B00DA11DA8
:1018D000661F829F2227B00DA11D621F739FB00D4E
:1018E000A11D621F839FA00D611D221F749F3327BE
:1018F000A00D611D231F849F600D211D822F762F57
:101900006A2F11249F5750408AF0E1F088234AF053
:10191000EE0FFF1FBB1F661F771F881F915050409F
:10192000A9F79E3F510570F014C0A6CF5F3FECF3BE
:10193000983EDCF3869577956795B795F795E7958B
:101940009F5FC1F7FE2B880F911D9695879597F99C
:10195000089597F99F6780E870E060E008959FEF31
:1019600080EC089500240A94161617061806090636
:10197000089500240A941216130614060506089505
:10198000092E0394000C11F4882352F0BB0F40F48D
:10199000BF2B11F460FF04C06F5F7F4F8F4F9F4FCD
:1019A0000895052E97FB16F400940FD057FD05D02F
:1019B00014D007FC02D046F408C0509540953095ED
:1019C00021953F4F4F4F5F4F0895909580957095AB
:1019D00061957F4F8F4F9F4F0895A1E21A2EAA1B4A
:1019E000BB1BFD010DC0AA1FBB1FEE1FFF1FA217CF
:1019F000B307E407F50720F0A21BB30BE40BF50BCC
:101A0000661F771F881F991F1A9469F76095709554
:101A1000809590959B01AC01BD01CF010895F8948C
:021A2000FFCFF6
:061A2200323545000041D1
:00000001FF
