:1000000071C000008FC000008DC000008BC00000D8
:1000100089C000000C941808DDC7000083C00000F0
:1000200081C000007FC000007DC000007BC00000D8
:1000300079C0000077C0000075C0000073C00000E8
:1000400071C000006FC000006DC000006BC00000F8
:1000500069C0000067C0000065C0000063C0000008
:1000600061C000005FC000005DC000005BC0000018
:1000700059C0000057C0000055C0000053C0000028
:1000800051C000004FC000004DC000004BC0000038
:1000900049C0000047C0000045C0000043C0000048
:1000A00041C000003FC000003DC000003BC0000058
:1000B00039C0000037C0000035C0000033C0000068
:1000C00031C000002FC000002DC00000E9C20000B8
:1000D00029C0000027C0000025C0000023C0000088
:1000E00021C0000011241FBECFEFD1E2DEBFCDBF83
:1000F00000E00CBF12E0A0E0B2E0EEE7FCE200E0BE
:100100000BBF02C007900D92A431B107D9F722E0CE
:10011000A4E1B2E001C01D92A73BB207E1F7DBD436
:100120000C943D166DCFCF93DF9300D01F92CDB7C7
:10013000DEB79C838B83F8948B819C819C0140E08B
:1001400050E080E090E1AEE0B0E0BC01CD010E9463
:10015000DC15DA01C90101979A83898385ED90E066
:1001600029813A81232F3327FC01208384ED90E0FD
:100170002981FC01208381ED90E028E9FC012083A6
:1001800082EC90E026E0FC012083789400000F9040
:100190000F900F900F90DF91CF910895CF93DF9341
:1001A000CDB7DEB7000080ED90E0FC0180818823B0
:1001B000D4F786ED90E0FC018081DF91CF91089526
:1001C000CF93DF931F92CDB7DEB78983000080ED18
:1001D00090E0FC018081882F90E080729927892B24
:1001E000B1F386ED90E02981FC01208300000F909F
:1001F000DF91CF910895CF93DF93CDB7DEB72897E6
:100200000FB6F894DEBF0FBECDBF9A8389837C837F
:100210006B835E834D8338872F838D819E81FC01A4
:1002200080819181FC0180818F3349F08F81988595
:10023000FC0180819181FC0180818F3381F48D816B
:100240009E812FE132E0FC01318320838F819885EC
:1002500020E232E0FC013183208388E734C18981C8
:100260009A81FC0120818D819E81FC018081918198
:10027000FC018081281709F03FC08B819C81FC0123
:1002800020818F819885FC0180819181FC01808192
:10029000821790F18D819E81FC0180819181FC010A
:1002A000208189819A81FC0120838F819885FC01BE
:1002B00080819181FC0120818B819C81FC012083C4
:1002C0008D819E81FC01808191819C012E5F3F4F39
:1002D0008D819E81FC01318320838F819885FC0173
:1002E000808191819C012E5F3F4F8F819885FC0119
:1002F000318320838EE4E7C089819A81FC012081CB
:100300008D819E81FC0180819181FC018081821719
:1003100008F43FC08B819C81FC0120818F819885EE
:10032000FC0180819181FC018081281791F58D81EC
:100330009E81FC0180819181FC01208189819A81CB
:10034000FC0120838F819885FC0180819181FC01D3
:1003500020818B819C81FC0120838D819E81FC0109
:10036000808191819C012E5F3F4F8D819E81FC0198
:10037000318320838F819885FC01808191819C014C
:100380002E5F3F4F8F819885FC013183208385E468
:100390009AC089819A81FC0120818D819E81FC0116
:1003A00080819181FC018081281709F03FC08B81F9
:1003B0009C81FC0120818F819885FC018081918145
:1003C000FC018081281790F18D819E81FC01808144
:1003D0009181FC01208189819A81FC0120838F8198
:1003E0009885FC0180819181FC0120818B819C8119
:1003F000FC0120838D819E81FC01808191819C0183
:100400002E5F3F4F8D819E81FC01318320838F8140
:100410009885FC01808191819C012E5F3F4F8F81E7
:100420009885FC013183208383E54DC089819A81C1
:10043000FC0120818D819E81FC0180819181FC01E4
:100440008081281708F43FC08B819C81FC012081AA
:100450008F819885FC0180819181FC018081281722
:1004600091F58D819E81FC0180819181FC0120812B
:1004700089819A81FC0120838F819885FC0180818C
:100480009181FC0120818B819C81FC0120838D81E5
:100490009E81FC01808191819C012E5F3F4F8D8167
:1004A0009E81FC01318320838F819885FC018081AE
:1004B00091819C012E5F3F4F8F819885FC01318394
:1004C000208387E500C028960FB6F894DEBF0FBEE4
:1004D000CDBFDF91CF910895CF93DF9300D0CDB7FB
:1004E000DEB79A8389836B8389819A81FC0180813D
:1004F0008E3419F48B818534D9F089819A81FC017D
:100500008081853419F48B81833591F089819A81BA
:10051000FC018081833519F48B81873549F089810D
:100520009A81FC018081873551F48B818E3439F4B6
:1005300089819A812B81FC01208382E582C0898197
:100540009A81FC0180818E3419F48B818735D9F032
:1005500089819A81FC018081873519F48B818335EB
:1005600091F089819A81FC018081833519F48B8116
:10057000853449F089819A81FC018081853451F468
:100580008B818E3439F489819A812B81FC012083FF
:100590008CE457C089819A81FC0180818E3419F4E2
:1005A0008B818E34D9F089819A81FC0180818534D8
:1005B00019F48B81853491F089819A81FC018081C5
:1005C000833519F48B81833549F089819A81FC0147
:1005D0008081873551F48B81873539F489819A81FF
:1005E0002B81FC01208386E42CC089819A81FC0147
:1005F00080818E3419F48B818335D9F089819A8179
:10060000FC018081833519F48B818E3491F08981CE
:100610009A81FC018081873519F48B81853449F0FA
:1006200089819A81FC018081853451F48B818735E1
:1006300039F489819A812B81FC01208384E501C0F2
:1006400083E50F900F900F90DF91CF910895CF9396
:10065000DF93CDB7DEB78091A2028093A302809191
:10066000A9028093A402809100028093A5021092B7
:1006700016020EC080911602882F90E08D559D4F76
:10068000FC0180819DDD809116028F5F80931602B0
:1006900080911602833070F30000DF91CF910895AE
:1006A0001F920F9200905F000F92112400905B0048
:1006B0000F920F931F932F933F934F935F936F93DB
:1006C0007F938F939F93AF93BF93EF93FF93CF93BA
:1006D000DF93CDB7DEB786ED90E0FC01808180939B
:1006E000A8028091A802882F90E083329105B9F189
:1006F000849709F042C052DD8093A2024FDD8093BF
:10070000A902109216021AC080911602082F10E05A
:1007100045DD282FC801815E9D4FFC01208380911B
:100720001602882F90E0815E9D4FFC01808185320A
:1007300051F0809116028F5F80931602809116020D
:10074000823810F301C00000809100028093A7025C
:1007500081E090E090931502809314020EC0809186
:10076000A2028093A3028091A9028093A4028091A7
:10077000A7028093A5026BDF00000000DF91CF91FC
:10078000FF91EF91BF91AF919F918F917F916F9169
:100790005F914F913F912F911F910F910F90009278
:1007A0005B000F9000925F000F901F901895CF9301
:1007B000DF93CDB7DEB761970FB6F894DEBF0FBEFB
:1007C000CDBF8F87688B498B1092AA021092A60228
:1007D0008F85833378F08889833360F08989833308
:1007E00048F060E080E069D281E08093AA0281E075
:1007F0008093A6028F858233A8F08091A602882379
:1008000089F48091AA02882369F48091140290915E
:100810001502892B39F08ED264EB80E54ED281E04F
:100820008093AA0289898233A8F08091A602882346
:1008300089F48091AA02882369F48091140290912E
:100840001502892B39F076D260E584EB36D281E04F
:100850008093AA0288898233A8F08091A602882317
:1008600089F48091AA02882369F4809114029091FE
:100870001502892B39F05ED264ED88EC1ED281E03E
:100880008093AA028091A602882309F41BC180915B
:10089000140290911502892B09F414C145E052E02D
:1008A00061E081E00E94AE128091A202482F64E0D4
:1008B00081E00E9442114CE265E081E00E94421119
:1008C0008091A902482F66E081E00E94421149E030
:1008D00052E068E081E00E94AE12809101029091A6
:1008E0000202FC018081482F6BE081E00E944211EE
:1008F0004CE26CE081E00E944211809103029091F1
:100900000402FC018081482F6DE081E00E944211C9
:100910004DE052E061E082E00E94AE128091000260
:10092000482F64E082E00E94421123E032E041E07F
:1009300052E069EA72E082EA92E05DDC8093A7020D
:1009400086DE8091A702883731F41092150210924A
:10095000140288E7B7C08091A702682F80E092E078
:10096000BBDD8093A1028091A7028093000280E00A
:1009700090E0AAE7B3E489839A83AB83BC8326E63D
:1009800036E646E655E469817A818B819C810E9436
:100990006615DC01CB018D839E83AF83B88720E091
:1009A00030E040E85FE36D817E818F8198850E9411
:1009B000181488232CF481E090E09A8789873FC03F
:1009C00020E03FEF4FE757E46D817E818F8198856E
:1009D0000E94621518164CF520E030E040E251E428
:1009E00069817A818B819C810E946615DC01CB0133
:1009F000BC01CD010E948414DC01CB019A87898758
:100A00000FC080E791E09C878B878B859C85019741
:100A1000F1F79C878B8789859A8501979A878987C3
:100A200089859A85892B69F714C06D817E818F81B4
:100A300098850E948414DC01CB019A878987898577
:100A40009A859E878D878D859E850197F1F79E8774
:100A50008D878091A102882F90E082359105C1F0A9
:100A6000833591053CF48634910559F08C34910519
:100A7000B1F028C08335910501F184359105B1F0BD
:100A800021C064ED88EC19D185E590E0FFD21AC051
:100A900081E490E0FBD28AE590E022D313C081E4A8
:100AA00090E0F4D28AE590E006D30CC081E490E0B7
:100AB000EDD284EB90E0FFD205C047E466E081E030
:100AC0000E94421161960FB6F894DEBF0FBECDBFF3
:100AD000DF91CF910895CF93DF9300D01F92CDB7D0
:100AE000DEB780E895E21FDB19821A821B82E0D311
:100AF0000E947D1024D03DD056D0F7D0C1D31FD353
:100B00006CD068EC88ECD9D000D383E05FD38B83C2
:100B100082E05CD38A8381E059D3898349816A81E9
:100B20008B8145DE8C83809114029091150221E027
:100B300030E0AC016FE081E00E94D712E6CFCF93A6
:100B4000DF93CDB7DEB781E290E021E230E0F9013A
:100B500020812F60FC01208382E290E022E230E0DD
:100B6000F9012081207FFC0120830000DF91CF91DB
:100B70000895CF93DF93CDB7DEB78AE091E02AE006
:100B800031E0F90120812861FC0120838BE091E0B4
:100B90002BE031E0F90120812861FC012083000075
:100BA000DF91CF910895CF93DF93CDB7DEB78DE27C
:100BB00090E02DE230E0F90120812F7CFC012083C0
:100BC0008EE290E02EE230E0F90120812063FC010A
:100BD00020830000DF91CF910895CF93DF93CDB7AD
:100BE000DEB781E291E0FC01108285E291E02FEF17
:100BF000FC01208384E291E021E0FC01208389E272
:100C000091E0FC01108288E291E02FEFFC0120834B
:100C10008BE291E0FC0110828AE291E02FEFFC016F
:100C2000208380E291E020E231E0F9012081206A16
:100C3000FC01208380E291E020E231E0F901208193
:100C40002F7AFC01208380E291E020E231E0F9017B
:100C500020812160FC01208380E291E020E231E0EC
:100C6000F90120812D7FFC01208381E291E021E2C6
:100C700031E0F90120812860FC01208381E291E0CC
:100C800021E231E0F90120812F7EFC01208381E205
:100C900091E021E231E0F90120812360FC01208311
:100CA00081E291E021E231E0F90120812B7FFC011A
:100CB00020830000DF91CF910895CF93DF931F929F
:100CC0001F92CDB7DEB789836A8388E291E02981DC
:100CD000FC0120838AE291E02A81FC01208300004C
:100CE0000F900F90DF91CF910895CF93DF93CDB701
:100CF000DEB7F8948DE390E02DE330E0F901208138
:100D00002063FC0120838AE690E02AE630E0F901C6
:100D100020812A60FC0120838AE690E02AE630E008
:100D2000F90120812A7FFC01208378940000DF9163
:100D3000CF910895CF93DF93CDB7DEB782E290E0F5
:100D400022E230E0F9012081267FFC01208382E24B
:100D500090E022E230E0F90120812660FC0120834E
:100D60000000DF91CF910895CF93DF93CDB7DEB729
:100D700082E290E022E230E0F9012081257FFC014F
:100D8000208382E290E022E230E0F90120812560B8
:100D9000FC0120830000DF91CF910895CF93DF9372
:100DA000CDB7DEB782E290E022E230E0F9012081A7
:100DB0002A7FFC01208382E290E022E230E0F90108
:100DC00020812A60FC0120830000DF91CF910895EB
:100DD000CF93DF93CDB7DEB782E290E022E230E03E
:100DE000F9012081207FFC0120830000DF91CF9159
:100DF0000895CF93DF93CDB7DEB72A970FB6F89457
:100E0000DEBF0FBECDBF9A87898719821A821B82E7
:100E10001C821D821E821F82188689859A85CC01BC
:100E2000A0E0B0E0BC01CD010E94B014DC01CB0118
:100E300028E431EE42E850E4BC01CD010E941C14CC
:100E4000DC01CB0189839A83AB83BC8369817A817E
:100E50008B819C810E948414DC01CB01CC01A0E039
:100E6000B0E08D839E83AF83B88710921B021092EF
:100E70001C0210921D0210921E0210921702109274
:100E800018021092190210921A0220911B0230913E
:100E90001C0240911D0250911E028D819E81AF81E6
:100EA000B885281739074A075B0790F42091170285
:100EB000309118024091190250911A028D819E8141
:100EC000AF81B885281739074A075B0708F4DDCFDB
:100ED0007FDF00002A960FB6F894DEBF0FBECDBFAD
:100EE000DF91CF910895CF93DF93CDB7DEB72A97E7
:100EF0000FB6F894DEBF0FBECDBF9A8789871982DF
:100F00001A821B821C821D821E821F82188689857E
:100F10009A85CC01A0E0B0E0BC01CD010E94B014E4
:100F2000DC01CB0125EE30ED4AEA50E4BC01CD01F5
:100F30000E941C14DC01CB0189839A83AB83BC83A0
:100F400069817A818B819C810E948414DC01CB01B0
:100F50008D839E83AF83B88710921B0210921C0270
:100F600010921D0210921E02109217021092180287
:100F70001092190210921A0220911B0230911C0249
:100F800040911D0250911E028D819E81AF81B885D6
:100F9000281739074A075B0790F420911702309110
:100FA00018024091190250911A028D819E81AF81E1
:100FB000B885281739074A075B0708F4DDCF08DF33
:100FC00000002A960FB6F894DEBF0FBECDBFDF91AA
:100FD000CF9108951F920F9200905F000F921124FD
:100FE0008F939F93AF93BF93CF93DF93CDB7DEB72C
:100FF00080911B0290911C02A0911D02B0911E02D3
:101000000196A11DB11D80931B0290931C02A09319
:101010001D02B0931E020000DF91CF91BF91AF91EE
:101020009F918F910F9000925F000F901F901895E5
:101030001F920F9200905F000F9211248F939F9345
:10104000AF93BF93CF93DF93CDB7DEB780911702F5
:1010500090911802A0911902B0911A020196A11D57
:10106000B11D8093170290931802A0931902B093B8
:101070001A020000DF91CF91BF91AF919F918F91A4
:101080000F9000925F000F901F901895CF93DF9301
:101090001F921F92CDB7DEB79A83898364ED88ECE7
:1010A0000CDE48DE89819A811EDF00000F900F90D0
:1010B000DF91CF910895CF93DF931F921F92CDB709
:1010C000DEB79A83898364ED88ECF7DD4DDE898194
:1010D0009A818FDE00000F900F90DF91CF910895DD
:1010E000CF93DF931F921F92CDB7DEB79A83898388
:1010F00064ED88ECE2DD52DE89819A817ADE0000BF
:101100000F900F90DF91CF910895CF93DF93CDB7DC
:10111000DEB787E290E027E230E0F9012081286025
:10112000FC01208388E290E028E230E0F901208190
:10113000277FFC0120830000DF91CF910895CF939A
:10114000DF93CDB7DEB78AE790E02AE730E0F90118
:1011500020812668FC0120838AE790E02AE730E0BE
:10116000F90120812678FC0120838BE790E02BE7B2
:1011700030E0F9012081207BFC0120838CE790E0A6
:101180002CE730E0F90120812076FC0120838CE7F8
:1011900090E02CE730E0F90120812064FC012083FD
:1011A0008CE790E02CE730E0F90120812062FC011F
:1011B000208380E590E020E530E0F901208120687F
:1011C000FC0120830000DF91CF910895CF93DF933E
:1011D0001F921F92CDB7DEB78A838A81883048F08C
:1011E0008BE790E02BE730E0F90120812860FC01DB
:1011F00020838A8187708A838CE790E02CE730E037
:10120000F90130812A81232BFC0120838AE790E0B9
:101210002AE730E0F90120812064FC0120830000EE
:101220008AE790E0FC018081882F90E08071992707
:10123000892BB1F389E790E0FC01808189838AE7FB
:1012400090E02AE730E0F90120812061FC01208351
:101250008BE790E02BE730E0F9012081277FFC014C
:1012600020838CE790E02CE730E0F9012081207E9C
:10127000FC01208389810F900F90DF91CF91089519
:10128000CF93DF93CDB7DEB780E390E0FC0110820F
:1012900081E390E0FC01108287E091E0FC01108284
:1012A00088E091E0FC0110820000DF91CF91089569
:1012B000CF93DF93CDB7DEB787E290E027E230E04F
:1012C000F90120812760FC01208387E290E027E27A
:1012D00030E0F9012081206FFC01208388E290E05A
:1012E00028E230E0F9012081287FFC01208388E298
:1012F00090E028E230E0F90120812F70FC0120838A
:101300000000DF91CF9108950F931F93CF93DF9348
:10131000CDB7DEB7C057D1090FB6F894DEBF0FBE08
:10132000CDBF80E090E0A0E8BFE389839A83AB83E0
:10133000BC838E0109591F4F26E636E646E655E482
:1013400069817A818B819C810E946615DC01CB01C9
:10135000F80180839183A283B383CE0189599F4F83
:1013600020E030E040E85FE3FC0160817181828130
:1013700093810E94181488234CF4CE0185599F4F05
:1013800021E030E0FC013183208369C0CE0189591E
:101390009F4F20E03FEF4FE757E4FC0160817181F0
:1013A000828193810E94621518160CF046C020E0DD
:1013B00030E040E251E469817A818B819C810E9416
:1013C0006615DC01CB018E0105591F4FBC01CD0113
:1013D0000E948414DC01CB01F8019183808324C036
:1013E000CE0183599F4F20E731E0FC0131832083F8
:1013F000CE0183599F4FFC01808191810197F1F7C4
:101400009E0123593F4FF90191838083CE01855975
:101410009F4F9E0125593F4FF90120813181215075
:101420003109FC0131832083CE0185599F4FFC0196
:1014300080819181892BA1F62CC08E0105591F4F07
:10144000CE0189599F4FFC01608171818281938116
:101450000E948414DC01CB01F80191838083CE01CA
:1014600081599F4F9E0125593F4FF90120813181BC
:10147000FC0131832083CE0181599F4FFC01808183
:1014800091810197F1F79E0121593F4FF901918315
:10149000808388E290E028E230E0F90120812E7F0D
:1014A000FC01208388E290E028E230E0F90120810D
:1014B0002D7FFC01208388E290E020E3FC01208363
:1014C00088E290E028E230E0F90120812460FC010C
:1014D000208380E090E0A0EAB0E48D839E83AF8318
:1014E000B8878E01035A1F4F26E636E646E655E4D6
:1014F0006D817E818F8198850E946615DC01CB010C
:10150000F80180839183A283B383CE01835A9F4FD6
:1015100020E030E040E85FE3FC016081718182817E
:1015200093810E94181488234CF4CE018F599F4F49
:1015300021E030E0FC013183208369C0CE01835A71
:101540009F4F20E03FEF4FE757E4FC01608171813E
:10155000828193810E94621518160CF046C020E02B
:1015600030E040E251E46D817E818F8198850E9458
:101570006615DC01CB018E010F591F4FBC01CD0157
:101580000E948414DC01CB01F8019183808324C084
:10159000CE018D599F4F20E731E0FC01318320833C
:1015A000CE018D599F4FFC01808191810197F1F708
:1015B0009E012D593F4FF90191838083CE018F59B0
:1015C0009F4F9E012F593F4FF901208131812150BA
:1015D0003109FC0131832083CE018F599F4FFC01DB
:1015E00080819181892BA1F62CC08E010F591F4F4C
:1015F000CE01835A9F4FFC0160817181828193816A
:101600000E948414DC01CB01F80191838083CE0118
:101610008B599F4F9E012F593F4FF90120813181F6
:10162000FC0131832083CE018B599F4FFC018081C7
:1016300091810197F1F79E012B593F4FF901918359
:10164000808388E290E028E230E0F90120812B7F5E
:10165000FC01208380E090E0A0E8BFE389879A87BF
:10166000AB87BC878E010D5A1F4F26E636E646E64D
:1016700055E469857A858B859C850E946615DC0119
:10168000CB01F80180839183A283B383CE018D5A6D
:101690009F4F20E030E040E85FE3FC016081718112
:1016A000828193810E94181488234CF4CE01895AB8
:1016B0009F4F21E030E0FC013183208369C0CE01DF
:1016C0008D5A9F4F20E03FEF4FE757E4FC016081C8
:1016D0007181828193810E94621518160CF046C0B8
:1016E00020E030E040E251E469857A858B859C8575
:1016F0000E946615DC01CB018E01095A1F4FBC0107
:10170000CD010E948414DC01CB01F8019183808318
:1017100024C0CE01875A9F4F20E731E0FC0131837E
:101720002083CE01875A9F4FFC01808191810197D0
:10173000F1F79E01275A3F4FF90191838083CE0133
:10174000895A9F4F9E01295A3F4FF90120813181CB
:1017500021503109FC0131832083CE01895A9F4FEA
:10176000FC0180819181892BA1F62CC08E01095A40
:101770001F4FCE018D5A9F4FFC0160817181828184
:1017800093810E948414DC01CB01F8019183808352
:10179000CE01855A9F4F9E01295A3F4FF901208162
:1017A0003181FC0131832083CE01855A9F4FFC019A
:1017B000808191810197F1F79E01255A3F4FF901F0
:1017C0009183808388E290E028E230E0F901208173
:1017D0002E7FFC01208388E290E028E230E0F901CE
:1017E00020812D7FFC01208388E290E020E3FC0132
:1017F000208388E290E028E230E0F9012081246033
:10180000FC01208380E090E0A0EAB0E48D879E8711
:10181000AF87B88B8E01075B1F4F26E636E646E69C
:1018200055E46D857E858F8598890E946615DC015B
:10183000CB01F80180839183A283B383CE01875BC0
:101840009F4F20E030E040E85FE3FC016081718160
:1018500082819381EDD788234CF4CE01835B9F4F27
:1018600021E030E0FC013183208368C0CE01875B3A
:101870009F4F20E03FEF4FE757E4FC01608171810B
:10188000828193810E94621518160CF046C020E0F8
:1018900030E040E251E46D857E858F8598890E9415
:1018A0006615DC01CB018E01035B1F4FBC01CD012E
:1018B0000E948414DC01CB01F8019183808324C051
:1018C000CE01815B9F4F20E731E0FC013183208313
:1018D000CE01815B9F4FFC01808191810197F1F7DF
:1018E0009E01215B3F4FF90191838083CE01835B91
:1018F0009F4F9E01235B3F4FF90120813181215091
:101900003109FC0131832083CE01835B9F4FFC01B1
:1019100080819181892BA1F62BC08E01035B1F4F23
:10192000CE01875B9F4FFC01608171818281938131
:10193000EBD7DC01CB01F80191838083CE018F5A74
:101940009F4F9E01235B3F4FF90120813181FC01B4
:1019500031832083CE018F5A9F4FFC01808191817A
:101960000197F1F79E012F5A3F4FF9019183808330
:1019700088E290E028E230E0F90120812B7FFC0131
:10198000208380E090E0A0E8BFE3898B9A8BAB8B4B
:10199000BC8B8E01015C1F4F26E636E646E655E419
:1019A00069897A898B899C890E946615DC01CB0143
:1019B000F80180839183A283B383CE01CF9620E088
:1019C00030E040E85FE3FC016081718182819381B6
:1019D0002FD788234CF4CE018D5B9F4F21E030E060
:1019E000FC013183208365C0CE01CF9620E03FEF1C
:1019F0004FE757E4FC0160817181828193810E94ED
:101A0000621518160CF045C020E030E040E251E4C9
:101A100069897A898B899C890E946615DC01CB01D2
:101A20008E010D5B1F4FBC01CD016ED7DC01CB01D8
:101A3000F8019183808324C0CE018B5B9F4F20E708
:101A400031E0FC0131832083CE018B5B9F4FFC0191
:101A5000808191810197F1F79E012B5B3F4FF90146
:101A600091838083CE018D5B9F4F9E012D5B3F4F05
:101A7000F9012081318121503109FC01318320831A
:101A8000CE018D5B9F4FFC0180819181892BA1F656
:101A90002AC08E010D5B1F4FCE01CF96FC016081E5
:101AA00071818281938130D7DC01CB01F801918370
:101AB0008083CE01895B9F4F9E012D5B3F4FF901D3
:101AC00020813181FC0131832083CE01895B9F4FCE
:101AD000FC01808191810197F1F79E01295B3F4FC5
:101AE000F9019183808388E290E028E230E0F901F7
:101AF00020812E7FFC01208388E290E028E230E004
:101B0000F90120812D7FFC01208388E290E020E311
:101B1000FC01208388E290E028E230E0F901208196
:101B20002460FC01208380E090E0A0EAB0E48D8B8B
:101B30009E8BAF8BB88F26E636E646E655E46D8978
:101B40007E898F89988DC2D7DC01CB018DAB9EAB8E
:101B5000AFABB8AF20E030E040E85FE36DA97EA90D
:101B60008FA998AD65D688232CF481E090E09AAFD8
:101B700089AF3BC020E03FEF4FE757E46DA97EA956
:101B80008FA998AD9FD718163CF520E030E040E2D1
:101B900051E46D897E898F89988D98D7DC01CB01BE
:101BA000BC01CD01B1D6DC01CB019AAF89AF0FC02A
:101BB00080E791E09CAF8BAF8BAD9CAD0197F1F7C7
:101BC0009CAF8BAF89AD9AAD01979AAF89AF89ADC4
:101BD0009AAD892B69F713C06DA97EA98FA998AD1D
:101BE00093D6DC01CB019AAF89AF89AD9AAD9EAF98
:101BF0008DAF8DAD9EAD0197F1F79EAF8DAF88E2B1
:101C000090E028E230E0F90120812B7FFC01208365
:101C100080E090E0A0E8BFE3898F9A8FAB8FBC8F04
:101C200026E636E646E655E4698D7A8D8B8D9C8DE9
:101C30004DD7DC01CB018BA79CA7ADA7BEA720E0A9
:101C400030E040E85FE36BA57CA58DA59EA5F0D5AF
:101C500088232CF481E090E098AB8FA73BC020E074
:101C60003FEF4FE757E46BA57CA58DA59EA52AD72E
:101C700018163CF520E030E040E251E4698D7A8DA1
:101C80008B8D9C8D23D7DC01CB01BC01CD013CD6D3
:101C9000DC01CB0198AB8FA70FC080E791E09AAB36
:101CA00089AB89A99AA90197F1F79AAB89AB8FA55E
:101CB00098A9019798AB8FA78FA598A9892B69F749
:101CC00013C06BA57CA58DA59EA51ED6DC01CB01FE
:101CD00098AB8FA78FA598A99CAB8BAB8BA99CA920
:101CE0000197F1F79CAB8BAB88E290E028E230E003
:101CF000F90120812E7FFC01208388E290E028E218
:101D000030E0F90120812D7FFC01208388E290E002
:101D100020E2FC01208388E290E028E230E0F90133
:101D200020812460FC01208380E090E0A0EAB0E400
:101D30008D8F9E8FAF8FB8A326E636E646E655E434
:101D40006D8D7E8D8F8D98A1C1D6DC01CB0189A3CD
:101D50009AA3ABA3BCA320E030E040E85FE369A115
:101D60007AA18BA19CA164D588232CF481E090E01A
:101D70009EA38DA33BC020E03FEF4FE757E469A14E
:101D80007AA18BA19CA19ED618163CF520E030E0EC
:101D900040E251E46D8D7E8D8F8D98A197D6DC0148
:101DA000CB01BC01CD01B0D5DC01CB019EA38DA33D
:101DB0000FC080E791E098A78FA38FA198A5019706
:101DC000F1F798A78FA38DA19EA101979EA38DA344
:101DD0008DA19EA1892B69F713C069A17AA18BA15E
:101DE0009CA192D5DC01CB019EA38DA38DA19EA1C8
:101DF0009AA789A789A59AA50197F1F79AA789A714
:101E000088E290E028E230E0F90120812B7FFC019C
:101E100020830000C059DF4F0FB6F894DEBF0FBE1D
:101E2000CDBFDF91CF911F910F910895CF93DF9395
:101E3000CDB7DEB76E970FB6F894DEBF0FBECDBF3D
:101E40008E8F8E8D89838981807F898388E290E05F
:101E500028E230E0F90120812F70FC01208388E224
:101E600090E028E230E0F90130812981232BFC0148
:101E7000208388E290E028E230E0F90120812E7F83
:101E8000FC01208388E290E028E230E0F901208123
:101E90002D7FFC01208388E290E028E230E0F90108
:101EA00020812460FC01208380E090E0A0EAB0E47F
:101EB0008A839B83AC83BD8326E636E646E655E4FB
:101EC0006A817B818C819D8101D6DC01CB018C8B69
:101ED0009D8BAE8BBF8B20E030E040E85FE36C89E8
:101EE0007D898E899F89A4D488232CF481E090E099
:101EF000998F888F3BC020E03FEF4FE757E46C8914
:101F00007D898E899F89DED518163CF520E030E06A
:101F100040E251E46A817B818C819D81D7D5DC01CF
:101F2000CB01BC01CD01F0D4DC01CB01998F888FAE
:101F30000FC080E791E09B8F8A8F8A8D9B8D0197E0
:101F4000F1F79B8F8A8F888D998D0197998F888F54
:101F5000888D998D892B69F713C06C897D898E894D
:101F60009F89D2D4DC01CB01998F888F888D998D80
:101F70009D8F8C8F8C8D9D8D0197F1F79D8F8C8F10
:101F800088E290E028E230E0F90120812B7FFC011B
:101F900020838E8D8F708E8F8E8D8295807F8E8F19
:101FA00088E290E028E230E0F90120812F70FC0106
:101FB000208388E290E028E230E0F90130812E8D24
:101FC000232BFC01208388E290E028E230E0F90135
:101FD00020812E7FFC01208388E290E028E230E01F
:101FE000F90120812D7FFC01208388E290E028E226
:101FF00030E0F90120812460FC01208380E090E042
:10200000A0EAB0E48E839F83A887B98726E636E6E8
:1020100046E655E46E817F818885998557D5DC0138
:10202000CB018A879B87AC87BD8720E030E040E802
:102030005FE36A857B858C859D85FAD388232CF4A4
:1020400081E090E09F878E873BC020E03FEF4FE725
:1020500057E46A857B858C859D8534D518163CF5BB
:1020600020E030E040E251E46E817F8188859985EF
:102070002DD5DC01CB01BC01CD0146D4DC01CB0167
:102080009F878E870FC080E791E0998B888B888926
:1020900099890197F1F7998B888B8E859F85019798
:1020A0009F878E878E859F85892B69F713C06A85E8
:1020B0007B858C859D8528D4DC01CB019F878E870D
:1020C0008E859F859B8B8A8B8A899B890197F1F7E7
:1020D0009B8B8A8B88E290E028E230E0F901208136
:1020E0002B7FFC01208300006E960FB6F894DEBFB4
:1020F0000FBECDBFDF91CF910895CF93DF93CDB7C2
:10210000DEB72E970FB6F894DEBF0FBECDBFFCD85A
:1021100080E090E0A0E8BFE389839A83AB83BC832F
:1021200026E636E646E655E469817A818B819C8114
:10213000CDD4DC01CB018D839E83AF83B88720E0B3
:1021400030E040E85FE36D817E818F81988570D3B8
:1021500088232CF481E090E09A8789873BC020E0B7
:102160003FEF4FE757E46D817E818F819885AAD438
:1021700018163CF520E030E040E251E469817A81B4
:102180008B819C81A3D4DC01CB01BC01CD01BCD3EC
:10219000DC01CB019A8789870FC080E791E09C879B
:1021A0008B878B859C850197F1F79C878B87898529
:1021B0009A8501979A87898789859A85892B69F7F6
:1021C00013C06D817E818F8198859ED3DC01CB0108
:1021D0009A87898789859A859E878D878D859E8533
:1021E0000197F1F79E878D8788E220DE81E01EDE71
:1021F00086E01CDE8EE01ADE80E818DE00002E96F7
:102200000FB6F894DEBF0FBECDBFDF91CF9108951A
:10221000CF93DF93CDB7DEB780E808DE0000DF9113
:10222000CF910895CF93DF931F921F92CDB7DEB762
:1022300089836A838981882F90E08230910581F0BB
:10224000833091051CF4019739F016C08330910555
:1022500059F0049769F010C08A818158E7DD0CC0FD
:102260008A818154E3DD08C08A818D56DFDD04C098
:102270008A818D52DBDD000000000F900F90DF910E
:10228000CF910895CF93DF93CDB7DEB7A0970FB668
:10229000F894DEBF0FBECDBF8E8F6F8F48A36F8DBA
:1022A0008E8DC0DF88A189838981807F898388E2C0
:1022B00090E028E230E0F90120812F70FC012083BA
:1022C00088E290E028E230E0F90130812981232B77
:1022D000FC01208388E290E028E230E0F9012081CF
:1022E0002160FC01208388E290E028E230E0F901DF
:1022F00020812D7FFC01208388E290E028E230E0FD
:10230000F90120812460FC01208380E090E0A0EAB4
:10231000B0E48A839B83AC83BD8326E636E646E63B
:1023200055E46A817B818C819D81D0D3DC01CB0116
:102330008C8B9D8BAE8BBF8B20E030E040E85FE361
:102340006C897D898E899F8973D288232CF481E0E2
:1023500090E0998F888F3BC020E03FEF4FE757E434
:102360006C897D898E899F89ADD318163CF520E054
:1023700030E040E251E46A817B818C819D81A6D36B
:10238000DC01CB01BC01CD01BFD2DC01CB01998FB7
:10239000888F0FC080E791E09B8F8A8F8A8D9B8DFD
:1023A0000197F1F79B8F8A8F888D998D0197998F6F
:1023B000888F888D998D892B69F713C06C897D89E9
:1023C0008E899F89A1D2DC01CB01998F888F888D5E
:1023D000998D9D8F8C8F8C8D9D8D0197F1F79D8FA1
:1023E0008C8F88E290E028E230E0F90120812B7F99
:1023F000FC01208388A18F7088A388A18295807FAB
:1024000088A388E290E028E230E0F90120812F7073
:10241000FC01208388E290E028E230E0F90130817D
:1024200028A1232BFC01208388E290E028E230E001
:10243000F90120812160FC01208388E290E028E2FC
:1024400030E0F90120812D7FFC01208388E290E0BB
:1024500028E230E0F90120812460FC01208380E043
:1024600090E0A0EAB0E48E839F83A887B98726E630
:1024700036E646E655E46E817F818885998526D3C8
:10248000DC01CB018A879B87AC87BD8720E030E0E9
:1024900040E85FE36A857B858C859D85C9D188236B
:1024A0002CF481E090E09F878E873BC020E03FEFD7
:1024B0004FE757E46A857B858C859D8503D3181685
:1024C0003CF520E030E040E251E46E817F81888578
:1024D0009985FCD2DC01CB01BC01CD0115D2DC0118
:1024E000CB019F878E870FC080E791E0998B888B07
:1024F000888999890197F1F7998B888B8E859F85BB
:1025000001979F878E878E859F85892B69F713C0DA
:102510006A857B858C859D85F7D1DC01CB019F8702
:102520008E878E859F859B8B8A8B8A899B89019755
:10253000F1F79B8B8A8B88E290E028E230E0F9018A
:1025400020812B7FFC0120830000A0960FB6F89419
:10255000DEBF0FBECDBFDF91CF910895CF93DF9344
:1025600000D01F92CDB7DEB789836A835C834B832B
:1025700010C08B819C81FC018081482F6A818981F8
:1025800081DE8B819C8101969C838B838A818F5F06
:102590008A838B819C81FC018081882351F7000014
:1025A0000F900F900F900F90DF91CF910895CF93E0
:1025B000DF93CDB7DEB727970FB6F894DEBF0FBE17
:1025C000CDBF8A836B835D834C833F832E836B8176
:1025D0008A8128DE8C819D8199237CF48C819D8168
:1025E0009195819591099D838C8341E152E06B81A6
:1025F0008A81B4DF8B818F5F8B8319828A818823E4
:1026000019F08B81882311F403DE03C06B818A816A
:1026100009DE8E819F81059719F089818130C9F487
:102620008C819D8120E137E2B901B3D2CB01C09604
:102630009093AC028093AB028091AB029091AC027C
:10264000482F6B818A811EDE8B818F5F8B8381E0B7
:1026500089838E819F81049719F089818130C1F52A
:102660008C819D8128EE33E0B90193D2CB01909308
:10267000AE028093AD024091AD025091AE029A013C
:10268000ADECBCECB5D296958795969587959695C9
:102690008795880F991F9C01220F331F220F331F2C
:1026A000820F931F9A01281B390BC901C096909382
:1026B000B6028093B5028091B5029091B602482F80
:1026C0006B818A81DFDD8B818F5F8B8381E08983E2
:1026D0008E819F81039719F089818130C1F58C81AA
:1026E0009D8124E630E0B90154D2CB019093AE0233
:1026F0008093AD024091AD025091AE029A01ADECD3
:10270000BCEC76D296958795969587959695879504
:10271000880F991F9C01220F331F220F331F820F36
:10272000931F9A01281B390BC901C0969093B202DE
:102730008093B1028091B1029091B202482F6B81D7
:102740008A81A0DD8B818F5F8B8381E089838E817D
:102750009F81029719F089818130C1F58C819D811B
:102760002AE030E0B90115D2CB019093AE028093FC
:10277000AD024091AD025091AE029A01ADECBCECBD
:1027800037D2969587959695879596958795880FD4
:10279000991F9C01220F331F220F331F820F931F9B
:1027A0009A01281B390BC901C0969093B0028093FF
:1027B000AF028091AF029091B002482F6B818A8165
:1027C00061DD8B818F5F8B8381E089838E819F8127
:1027D000019719F089818130B1F48C819D812AE0C3
:1027E00030E0B901D6D1C0969093B4028093B30281
:1027F0008091B3029091B402482F6B818A8142DDAF
:102800008B818F5F8B838E819F8106973CF045E49F
:102810006B818A8137DD8B818F5F8B8300002796E8
:102820000FB6F894DEBF0FBECDBFDF91CF910895F4
:10283000D4D008F481E008950CD00AC102D140F050
:10284000F9D030F021F45F3F19F0EBC0511134C1E1
:10285000EEC00FD198F39923C9F35523B1F3951B1B
:10286000550BBB27AA2762177307840738F09F5FB1
:102870005F4F220F331F441FAA1FA9F333D00E2E20
:102880003AF0E0E830D091505040E695001CCAF78D
:1028900029D0FE2F27D0660F771F881FBB1F261752
:1028A00037074807AB07B0E809F0BB0B802DBF0125
:1028B000FF2793585F4F2AF09E3F510568F0B1C043
:1028C000FBC05F3FECF3983EDCF386957795679508
:1028D000B795F7959F5FC9F7880F911D96958795D6
:1028E00097F90895E1E0660F771F881FBB1F6217F5
:1028F00073078407BA0720F0621B730B840BBA0BB3
:10290000EE1F88F7E0950895BCD088F09F5790F0AF
:10291000B92F9927B751A0F0D1F0660F771F881F04
:10292000991F1AF0BA95C9F712C0B13081F0C3D01F
:10293000B1E00895C0C0672F782F8827B85F39F0BD
:10294000B93FCCF3869577956795B395D9F73EF463
:1029500090958095709561957F4F8F4F9F4F08950B
:10296000E89409C097FB3EF4909580957095619529
:102970007F4F8F4F9F4F9923A9F0F92F96E9BB27DF
:102980009395F695879577956795B795F111F8CF5B
:10299000FAF4BB0F11F460FF1BC06F5F7F4F8F4FC6
:1029A0009F4F16C0882311F096E911C0772321F0BC
:1029B0009EE8872F762F05C0662371F096E8862F54
:1029C00070E060E02AF09A95660F771F881FDAF7AB
:1029D000880F9695879597F90895990F0008550FD8
:1029E000AA0BE0E8FEEF16161706E807F907C0F095
:1029F00012161306E407F50798F0621B730B840B9D
:102A0000950B39F40A2661F0232B242B252B21F476
:102A100008950A2609F4A140A6958FEF811D811D16
:102A2000089597F99F6780E870E060E008959FEF50
:102A300080EC089500240A94161617061806090655
:102A4000089500240A941216130614060506089524
:102A5000092E0394000C11F4882352F0BB0F40F4AC
:102A6000BF2B11F460FF04C06F5F7F4F8F4F9F4FEC
:102A7000089557FD9058440F551F59F05F3F71F06E
:102A80004795880F97FB991F61F09F3F79F08795D5
:102A90000895121613061406551FF2CF4695F1DF5E
:102AA00008C0161617061806991FF1CF86957105EE
:102AB000610508940895E894BB2766277727CB0122
:102AC00097F908958ADF08F48FEF08950BD0C0CFEF
:102AD000B1DF28F0B6DF18F0952309F0A2CFA7CF19
:102AE0001124EACFC6DFA0F3959FD1F3950F50E0F4
:102AF000551F629FF001729FBB27F00DB11D639FB0
:102B0000AA27F00DB11DAA1F649F6627B00DA11D55
:102B1000661F829F2227B00DA11D621F739FB00DFB
:102B2000A11D621F839FA00D611D221F749F33276B
:102B3000A00D611D231F849F600D211D822F762F04
:102B40006A2F11249F5750408AF0E1F088234AF001
:102B5000EE0FFF1FBB1F661F771F881F915050404D
:102B6000A9F79E3F510570F05CCFA6CF5F3FECF315
:102B7000983EDCF3869577956795B795F795E79539
:102B80009F5FC1F7FE2B880F911D9695879597F94A
:102B9000089597FB072E16F4009406D077FD08D011
:102BA00036D007FC05D03EF4909581959F4F08954F
:102BB000709561957F4F0895052E97FB16F400944C
:102BC0000FD057FD05D037D007FC02D046F408C01F
:102BD00050954095309521953F4F4F4F5F4F089549
:102BE00090958095709561957F4F8F4F9F4F089579
:102BF000A29FB001B39FC001A39F700D811D11243E
:102C0000911DB29F700D811D1124911D0895AA1B65
:102C1000BB1B51E107C0AA1FBB1FA617B70710F0C7
:102C2000A61BB70B881F991F5A95A9F780959095F9
:102C3000BC01CD010895A1E21A2EAA1BBB1BFD0108
:102C40000DC0AA1FBB1FEE1FFF1FA217B307E4078B
:102C5000F50720F0A21BB30BE40BF50B661F771FE3
:102C6000881F991F1A9469F76095709580959095C3
:0E2C70009B01AC01BD01CF010895F894FFCF88
:102C7E004E1F02200243503A004E503A00434F3A44
:042C8E00002D000015
:00000001FF
