:1000000071C000008FC000008DC000008BC00000D8
:1000100089C00000A0C6000070C6000083C00000B8
:1000200081C000007FC000007DC000007BC00000D8
:1000300079C0000077C0000075C0000073C00000E8
:1000400071C000006FC000006DC000006BC00000F8
:1000500069C0000067C0000065C0000063C0000008
:1000600061C000005FC000005DC000005BC0000018
:1000700059C0000057C0000055C0000053C0000028
:1000800051C000004FC000004DC000004BC0000038
:1000900049C0000047C0000045C0000043C0000048
:1000A00041C000003FC000003DC000003BC0000058
:1000B00039C0000037C0000035C0000033C0000068
:1000C00031C000002FC000002DC000002BC0000078
:1000D00029C0000027C0000025C0000023C0000088
:1000E00021C0000011241FBECFEFD1E2DEBFCDBF83
:1000F00000E00CBF12E0A0E0B2E0E2E1F6E200E0D6
:100100000BBF02C007900D92A632B107D9F722E0CB
:10011000A6E2B2E001C01D92A233B207E1F76FD3AD
:100120000C9407136DCFCF93DF93CDB7DEB728972D
:100130000FB6F894DEBF0FBECDBF9A8389837C8350
:100140006B835E834D8338872F838D819E81FC0175
:1001500080819181FC018081882349F08F8198857D
:10016000FC0180819181FC018081882311F488E762
:1001700034C189819A81FC0120818D819E81FC019D
:1001800080819181FC018081281709F03FC08B811B
:100190009C81FC0120818F819885FC018081918167
:1001A000FC018081821790F18D819E81FC0180810C
:1001B0009181FC01208189819A81FC0120838F81BA
:1001C0009885FC0180819181FC0120818B819C813B
:1001D000FC0120838D819E81FC01808191819C01A5
:1001E0002E5F3F4F8D819E81FC01318320838F8163
:1001F0009885FC01808191819C012E5F3F4F8F810A
:100200009885FC01318320838EE4E7C089819A813F
:10021000FC0120818D819E81FC0180819181FC0106
:100220008081821708F43FC08B819C81FC01208172
:100230008F819885FC0180819181FC018081281744
:1002400091F58D819E81FC0180819181FC0120814D
:1002500089819A81FC0120838F819885FC018081AE
:100260009181FC0120818B819C81FC0120838D8107
:100270009E81FC01808191819C012E5F3F4F8D8189
:100280009E81FC01318320838F819885FC018081D0
:1002900091819C012E5F3F4F8F819885FC013183B6
:1002A000208385E49AC089819A81FC0120818D8117
:1002B0009E81FC0180819181FC018081281709F0D9
:1002C0003FC08B819C81FC0120818F819885FC013E
:1002D00080819181FC018081281790F18D819E8120
:1002E000FC0180819181FC01208189819A81FC013E
:1002F00020838F819885FC0180819181FC01208180
:100300008B819C81FC0120838D819E81FC018081F9
:1003100091819C012E5F3F4F8D819E81FC01318335
:1003200020838F819885FC01808191819C012E5FC3
:100330003F4F8F819885FC013183208383E54DC039
:1003400089819A81FC0120818D819E81FC018081BF
:100350009181FC018081281708F43FC08B819C812A
:10036000FC0120818F819885FC0180819181FC01B5
:100370008081281791F58D819E81FC01808191817A
:10038000FC01208189819A81FC0120838F819885DD
:10039000FC0180819181FC0120818B819C81FC0189
:1003A00020838D819E81FC01808191819C012E5F43
:1003B0003F4F8D819E81FC01318320838F81988501
:1003C000FC01808191819C012E5F3F4F8F81988538
:1003D000FC013183208387E500C028960FB6F8948E
:1003E000DEBF0FBECDBFDF91CF910895CF93DF93D6
:1003F00000D0CDB7DEB79A8389836B8389819A81D8
:10040000FC0180818E3419F48B818534D9F0898187
:100410009A81FC018081853419F48B81833591F0B8
:1004200089819A81FC018081833519F48B8187351C
:1004300049F089819A81FC018081873551F48B8153
:100440008E3439F489819A812B81FC01208382E5E5
:1004500057C089819A81FC0180818E3419F48B8187
:100460008735D9F089819A81FC018081873519F41B
:100470008B81833591F089819A81FC01808183355C
:1004800019F48B81853449F089819A81FC0180813E
:10049000853451F48B818E3439F489819A812B8192
:1004A000FC0120838CE42CC089819A81FC0180812D
:1004B0008E3419F48B818E34D9F089819A81FC01B4
:1004C0008081853419F48B81853491F089819A81FA
:1004D000FC018081833519F48B81833549F0898152
:1004E0009A81FC018081873551F48B81873539F4FD
:1004F00089819A812B81FC01208386E401C083E5F8
:100500000F900F900F90DF91CF910895CF93DF93CD
:10051000CDB7DEB761970FB6F894DEBF0FBECDBF83
:100520008F87688B498B1092310210922F028F8532
:10053000833378F08889833360F08989833348F086
:1005400060E080E04DD281E08093310281E08093D1
:100550002F028F85823378F080912F02882359F4FF
:1005600080913102882339F478D264EB80E538D267
:1005700081E0809331028989823378F080912F0263
:10058000882359F480913102882339F466D260E5DA
:1005900084EB26D281E0809331028889823378F01F
:1005A00080912F02882359F480913102882339F4F5
:1005B00054D264ED88EC14D281E0809331028091B2
:1005C0002F02882309F412C146E152E061E082E083
:1005D0000E942D1180911102482F64E082E00E9458
:1005E000C10F4AE152E061E081E00E942D1180914B
:1005F0000F02482F64E081E00E94C10F4CE265E0E9
:1006000081E00E94C10F80911002482F66E081E0D6
:100610000E94C10F4EE152E068E081E00E942D117E
:100620008091120290911302FC018081482F6BE0AF
:1006300081E00E94C10F4CE26CE081E00E94C10F9A
:100640008091140290911502FC018081482F6DE089
:1006500081E00E94C10F24E132E042E152E060E11A
:1006600072E08FE092E05FDD8093300242E252E080
:1006700068E082E00E942D1180913002482F6BE0EB
:1006800082E00E94C10F80913002883711F488E720
:10069000ADC080913002682F81E192E0A7DE8093A7
:1006A0002E02809130028093110280E090E0AAEF48
:1006B000B3E489839A83AB83BC8326E636E646E6B9
:1006C00055E469817A818B819C810E94A412DC01AE
:1006D000CB018D839E83AF83B88720E030E040E874
:1006E0005FE36D817E818F8198850E9456118823FA
:1006F0002CF481E090E09A8789873FC020E03FEFAB
:100700004FE757E46D817E818F8198850E94A0120A
:1007100018164CF520E030E040E251E469817A811E
:100720008B819C810E94A412DC01CB01BC01CD0114
:100730000E94C211DC01CB019A8789870FC080E734
:1007400091E09C878B878B859C850197F1F79C872F
:100750008B8789859A8501979A87898789859A8564
:10076000892B69F714C06D817E818F8198850E94E5
:10077000C211DC01CB019A87898789859A859E877A
:100780008D878D859E850197F1F79E878D87809156
:100790002E02882F90E08C349105E1F08D34910584
:1007A00024F48634910541F021C08235910559F039
:1007B00083359105B1F01AC064ED88EC11D185E55F
:1007C00090E0F7D213C081E490E0F3D28AE590E0A4
:1007D0001AD30CC081E490E0ECD28AE590E0FED21E
:1007E00005C047E466E081E00E94C10F61960FB644
:1007F000F894DEBF0FBECDBFDF91CF910895CF93A8
:10080000DF9300D01F92CDB7DEB719821A821B8208
:10081000E2D30E94060F26D03FD058D0F9D0C3D3E0
:1008200021D36ED068EC88ECDBD002D383E061D3B7
:100830008B8382E05ED38A8381E05BD389834981A5
:100840006A818B8163DE8C838C81883709F0EECFDF
:10085000000080E090E00F900F900F900F90DF91DC
:10086000CF910895CF93DF93CDB7DEB781E290E0CB
:1008700021E230E0F90120812F60FC01208382E237
:1008800090E022E230E0F9012081207FFC0120830A
:100890000000DF91CF910895CF93DF93CDB7DEB7FE
:1008A0008AE091E02AE031E0F90120812861FC0131
:1008B00020838BE091E02BE031E0F9012081286179
:1008C000FC0120830000DF91CF910895CF93DF9347
:1008D000CDB7DEB78DE290E02DE230E0F901208166
:1008E0002F7CFC0120838EE290E02EE230E0F901C3
:1008F00020812063FC0120830000DF91CF910895C7
:10090000CF93DF93CDB7DEB781E291E0FC01108297
:1009100085E291E02FEFFC01208384E291E021E069
:10092000FC01208389E291E0FC01108288E291E0E1
:100930002FEFFC0120838BE291E0FC0110828AE220
:1009400091E02FEFFC01208380E291E020E231E092
:10095000F9012081206AFC01208380E291E020E2FD
:1009600031E0F90120812F7AFC01208380E291E0BF
:1009700020E231E0F90120812160FC01208380E246
:1009800091E020E231E0F90120812D7FFC012083FC
:1009900081E291E021E231E0F90120812860FC014F
:1009A000208381E291E021E231E0F90120812F7E74
:1009B000FC01208381E291E021E231E0F901208114
:1009C0002360FC01208381E291E021E231E0F90122
:1009D00020812B7FFC0120830000DF91CF910895BF
:1009E000CF93DF931F921F92CDB7DEB789836A83BF
:1009F00088E291E02981FC0120838AE291E02A814A
:100A0000FC01208300000F900F90DF91CF9108959B
:100A1000CF93DF93CDB7DEB7F8948DE390E02DE36D
:100A200030E0F90120812063FC0120838AE690E018
:100A30002AE630E0F90120812A60FC0120838AE661
:100A400090E02AE630E0F90120812A7FFC01208332
:100A500078940000DF91CF910895CF93DF93CDB7C5
:100A6000DEB782E290E022E230E0F9012081267FC9
:100A7000FC01208382E290E022E230E0F901208153
:100A80002660FC0120830000DF91CF910895CF9371
:100A9000DF93CDB7DEB782E290E022E230E0F901E9
:100AA0002081257FFC01208382E290E022E230E079
:100AB000F90120812560FC0120830000DF91CF91A6
:100AC0000895CF93DF93CDB7DEB782E290E022E2C4
:100AD00030E0F90120812A7FFC01208382E290E04E
:100AE00022E230E0F90120812A60FC01208300002D
:100AF000DF91CF910895CF93DF93CDB7DEB782E238
:100B000090E022E230E0F9012081207FFC01208387
:100B10000000DF91CF910895CF93DF93CDB7DEB77B
:100B20002A970FB6F894DEBF0FBECDBF9A8789878C
:100B300019821A821B821C821D821E821F821886C5
:100B400089859A85CC01A0E0B0E0BC01CD010E946E
:100B5000EE11DC01CB0128E431EE42E850E4BC01A7
:100B6000CD010E945A11DC01CB0189839A83AB83AA
:100B7000BC8369817A818B819C810E94C211DC01D6
:100B8000CB01CC01A0E0B0E08D839E83AF83B8871A
:100B900010922A0210922B0210922C0210922D0217
:100BA0001092260210922702109228021092290217
:100BB00020912A0230912B0240912C0250912D025B
:100BC0008D819E81AF81B885281739074A075B0759
:100BD00090F42091260230912702409128025091F2
:100BE00029028D819E81AF81B885281739074A0770
:100BF0005B0708F4DDCF7FDF00002A960FB6F8947C
:100C0000DEBF0FBECDBFDF91CF910895CF93DF93AD
:100C1000CDB7DEB72A970FB6F894DEBF0FBECDBFB3
:100C20009A87898719821A821B821C821D821E82E2
:100C30001F82188689859A85CC01A0E0B0E0BC01AE
:100C4000CD010E94EE11DC01CB0125EE30ED4AEA28
:100C500050E4BC01CD010E945A11DC01CB01898313
:100C60009A83AB83BC8369817A818B819C810E944A
:100C7000C211DC01CB018D839E83AF83B8871092B4
:100C80002A0210922B0210922C0210922D02109226
:100C90002602109227021092280210922902209117
:100CA0002A0230912B0240912C0250912D028D810D
:100CB0009E81AF81B885281739074A075B0790F4F2
:100CC000209126023091270240912802509129025A
:100CD0008D819E81AF81B885281739074A075B0748
:100CE00008F4DDCF08DF00002A960FB6F894DEBFC7
:100CF0000FBECDBFDF91CF9108951F920F9200904C
:100D00005F000F9211248F939F93AF93BF93CF9364
:100D1000DF93CDB7DEB780912A0290912B02A0918C
:100D20002C02B0912D020196A11DB11D80932A02C3
:100D300090932B02A0932C02B0932D020000DF9120
:100D4000CF91BF91AF919F918F910F9000925F00D3
:100D50000F901F9018951F920F9200905F000F92B6
:100D600011248F939F93AF93BF93CF93DF93CDB70E
:100D7000DEB78091260290912702A0912802B091BF
:100D800029020196A11DB11D80932602909327028E
:100D9000A0932802B09329020000DF91CF91BF9168
:100DA000AF919F918F910F9000925F000F901F90D5
:100DB0001895CF93DF931F921F92CDB7DEB79A831A
:100DC000898364ED88EC0CDE48DE89819A811EDF20
:100DD00000000F900F90DF91CF910895CF93DF9394
:100DE0001F921F92CDB7DEB79A83898364ED88EC9A
:100DF000F7DD4DDE89819A818FDE00000F900F9024
:100E0000DF91CF910895CF93DF931F921F92CDB7BB
:100E1000DEB79A83898364ED88ECE2DD52DE898156
:100E20009A817ADE00000F900F90DF91CF910895A4
:100E3000CF93DF93CDB7DEB787E290E027E230E0D3
:100E4000F90120812860FC01208388E290E028E2FB
:100E500030E0F9012081277FFC0120830000DF9131
:100E6000CF910895CF93DF93CDB7DEB78AE790E0B7
:100E70002AE730E0F90120812668FC0120838AE717
:100E800090E02AE730E0F90120812678FC012083F8
:100E90008BE790E02BE730E0F9012081207BFC011B
:100EA00020838CE790E02CE730E0F9012081207668
:100EB000FC0120838CE790E02CE730E0F9012081F1
:100EC0002064FC0120838CE790E02CE730E0F901FE
:100ED00020812062FC01208380E590E020E530E065
:100EE000F90120812068FC0120830000DF91CF916F
:100EF0000895CF93DF931F921F92CDB7DEB78A83F9
:100F00008A81883048F08BE790E02BE730E0F901E8
:100F100020812860FC0120838A8187708A838CE786
:100F200090E02CE730E0F90130812A81232BFC018D
:100F300020838AE790E02AE730E0F90120812064ED
:100F4000FC01208300008AE790E0FC018081882F6B
:100F500090E080719927892BB1F389E790E0FC013B
:100F6000808189838AE790E02AE730E0F9012081D7
:100F70002061FC0120838BE790E02BE730E0F90152
:100F80002081277FFC0120838CE790E02CE730E074
:100F9000F9012081207EFC01208389810F900F9030
:100FA000DF91CF910895CF93DF93CDB7DEB780E384
:100FB00090E0FC01108281E390E0FC01108287E068
:100FC00091E0FC01108288E091E0FC0110820000B9
:100FD000DF91CF910895CF93DF93CDB7DEB787E24E
:100FE00090E027E230E0F90120812760FC012083B6
:100FF00087E290E027E230E0F9012081206FFC01D8
:10100000208388E290E028E230E0F9012081287F07
:10101000FC01208388E290E028E230E0F9012081A1
:101020002F70FC0120830000DF91CF9108950F9372
:101030001F93CF93DF93CDB7DEB7C057D1090FB65B
:10104000F894DEBF0FBECDBF80E090E0A0E8BFE324
:1010500089839A83AB83BC838E0109591F4F26E68F
:1010600036E646E655E469817A818B819C810E944F
:10107000A412DC01CB01F80180839183A283B383A6
:10108000CE0189599F4F20E030E040E85FE3FC014A
:1010900060817181828193810E94561188234CF472
:1010A000CE0185599F4F21E030E0FC013183208340
:1010B00069C0CE0189599F4F20E03FEF4FE757E4C9
:1010C000FC0160817181828193810E94A0121816B7
:1010D0000CF046C020E030E040E251E469817A81C2
:1010E0008B819C810E94A412DC01CB018E010559E9
:1010F0001F4FBC01CD010E94C211DC01CB01F801E0
:101100009183808324C0CE0183599F4F20E731E033
:10111000FC0131832083CE0183599F4FFC018081E4
:1011200091810197F1F79E0123593F4FF901918376
:101130008083CE0185599F4F9E0125593F4FF9016C
:101140002081318121503109FC0131832083CE017E
:1011500085599F4FFC0180819181892BA1F62CC07C
:101160008E0105591F4FCE0189599F4FFC016081A7
:101170007181828193810E94C211DC01CB01F8014F
:1011800091838083CE0181599F4F9E0125593F4F06
:10119000F90120813181FC0131832083CE01815905
:1011A0009F4FFC01808191810197F1F79E012159A8
:1011B0003F4FF9019183808388E290E028E230E09C
:1011C000F90120812E7FFC01208388E290E028E253
:1011D00030E0F90120812D7FFC01208388E290E03E
:1011E00020E3FC01208388E290E028E230E0F9016E
:1011F00020812460FC01208380E090E0A0EAB0E43C
:101200008D839E83AF83B8878E01035A1F4F26E6D6
:1012100036E646E655E46D817E818F8198850E9491
:10122000A412DC01CB01F80180839183A283B383F4
:10123000CE01835A9F4F20E030E040E85FE3FC019D
:1012400060817181828193810E94561188234CF4C0
:10125000CE018F599F4F21E030E0FC013183208384
:1012600069C0CE01835A9F4F20E03FEF4FE757E41C
:10127000FC0160817181828193810E94A012181605
:101280000CF046C020E030E040E251E46D817E8108
:101290008F8198850E94A412DC01CB018E010F5929
:1012A0001F4FBC01CD010E94C211DC01CB01F8012E
:1012B0009183808324C0CE018D599F4F20E731E078
:1012C000FC0131832083CE018D599F4FFC01808129
:1012D00091810197F1F79E012D593F4FF9019183BB
:1012E0008083CE018F599F4F9E012F593F4FF901A7
:1012F0002081318121503109FC0131832083CE01CD
:101300008F599F4FFC0180819181892BA1F62CC0C0
:101310008E010F591F4FCE01835A9F4FFC016081F0
:101320007181828193810E94C211DC01CB01F8019D
:1013300091838083CE018B599F4F9E012F593F4F40
:10134000F90120813181FC0131832083CE018B5949
:101350009F4FFC01808191810197F1F79E012B59EC
:101360003F4FF9019183808388E290E028E230E0EA
:10137000F90120812B7FFC01208380E090E0A0E830
:10138000BFE389879A87AB87BC878E010D5A1F4FB1
:1013900026E636E646E655E469857A858B859C85A2
:1013A0000E94A412DC01CB01F80180839183A28307
:1013B000B383CE018D5A9F4F20E030E040E85FE3D9
:1013C000FC01608171818281938170D788234CF404
:1013D000CE01895A9F4F21E030E0FC013183208308
:1013E00067C0CE018D5A9F4F20E03FEF4FE757E493
:1013F000FC0160817181828193810E94A012181684
:101400000CF045C020E030E040E251E469857A8587
:101410008B859C850E94A412DC01CB018E01095AA8
:101420001F4FBC01CD01AED7DC01CB01F801918388
:10143000808324C0CE01875A9F4F20E731E0FC0112
:1014400031832083CE01875A9F4FFC018081918197
:101450000197F1F79E01275A3F4FF901918380834D
:10146000CE01895A9F4F9E01295A3F4FF901208191
:10147000318121503109FC0131832083CE01895A09
:101480009F4FFC0180819181892BA1F62BC08E0199
:10149000095A1F4FCE018D5A9F4FFC016081718107
:1014A000828193816FD7DC01CB01F8019183808326
:1014B000CE01855A9F4F9E01295A3F4FF901208145
:1014C0003181FC0131832083CE01855A9F4FFC017D
:1014D000808191810197F1F79E01255A3F4FF901D3
:1014E0009183808388E290E028E230E0F901208156
:1014F0002E7FFC01208388E290E028E230E0F901B1
:1015000020812D7FFC01208388E290E020E3FC0114
:10151000208388E290E028E230E0F9012081246015
:10152000FC01208380E090E0A0EAB0E48D879E87F4
:10153000AF87B88B8E01075B1F4F26E636E646E67F
:1015400055E46D857E858F859889FED7DC01CB01BA
:10155000F80180839183A283B383CE01875B9F4F81
:1015600020E030E040E85FE3FC016081718182812E
:1015700093819CD688234CF4CE01835B9F4F21E05E
:1015800030E0FC013183208365C0CE01875B9F4F33
:1015900020E03FEF4FE757E4FC01608171818281D9
:1015A0009381CED718160CF044C020E030E040E222
:1015B00051E46D857E858F859889C6D7DC01CB0186
:1015C0008E01035B1F4FBC01CD01DCD6DC01CB01DA
:1015D000F8019183808324C0CE01815B9F4F20E777
:1015E00031E0FC0131832083CE01815B9F4FFC0100
:1015F000808191810197F1F79E01215B3F4FF901B5
:1016000091838083CE01835B9F4F9E01235B3F4F7D
:10161000F9012081318121503109FC01318320837E
:10162000CE01835B9F4FFC0180819181892BA1F6C4
:101630002BC08E01035B1F4FCE01875B9F4FFC01C8
:1016400060817181828193819DD6DC01CB01F8019B
:1016500091838083CE018F5A9F4F9E01235B3F4F22
:10166000F90120813181FC0131832083CE018F5A21
:101670009F4FFC01808191810197F1F79E012F5AC4
:101680003F4FF9019183808388E290E028E230E0C7
:10169000F90120812B7FFC01208380E090E0A0E80D
:1016A000BFE3898B9A8BAB8BBC8B8E01015C1F4F88
:1016B00026E636E646E655E469897A898B899C896F
:1016C00043D7DC01CB01F80180839183A283B383EC
:1016D000CE01CF9620E030E040E85FE3FC0160817E
:1016E000718182819381E2D588234CF4CE018D5B98
:1016F0009F4F21E030E0FC013183208363C0CE01A5
:10170000CF9620E03FEF4FE757E4FC016081718105
:101710008281938115D718160CF044C020E030E088
:1017200040E251E469897A898B899C890DD7DC0173
:10173000CB018E010D5B1F4FBC01CD0123D6DC0117
:10174000CB01F8019183808324C0CE018B5B9F4F36
:1017500020E731E0FC0131832083CE018B5B9F4F7A
:10176000FC01808191810197F1F79E012B5B3F4F36
:10177000F90191838083CE018D5B9F4F9E012D5B8C
:101780003F4FF9012081318121503109FC01318322
:101790002083CE018D5B9F4FFC0180819181892B3D
:1017A000A1F62AC08E010D5B1F4FCE01CF96FC0122
:1017B0006081718182819381E5D5DC01CB01F801E3
:1017C00091838083CE01895B9F4F9E012D5B3F4FAC
:1017D000F90120813181FC0131832083CE01895BB5
:1017E0009F4FFC01808191810197F1F79E01295B58
:1017F0003F4FF9019183808388E290E028E230E056
:10180000F90120812E7FFC01208388E290E028E20C
:1018100030E0F90120812D7FFC01208388E290E0F7
:1018200020E3FC01208388E290E028E230E0F90127
:1018300020812460FC01208380E090E0A0EAB0E4F5
:101840008D8B9E8BAF8BB88F26E636E646E655E449
:101850006D897E898F89988D77D6DC01CB018DAB20
:101860009EABAFABB8AF20E030E040E85FE36DA9DE
:101870007EA98FA998AD1AD588232CF481E090E039
:101880009AAF89AF3BC020E03FEF4FE757E46DA927
:101890007EA98FA998AD54D618163CF520E030E00B
:1018A00040E251E46D897E898F89988D4DD6DC01A7
:1018B000CB01BC01CD0166D5DC01CB019AAF89AF6C
:1018C0000FC080E791E09CAF8BAF8BAD9CAD0197D3
:1018D000F1F79CAF8BAF89AD9AAD01979AAF89AF05
:1018E00089AD9AAD892B69F713C06DA97EA98FA91F
:1018F00098AD48D5DC01CB019AAF89AF89AD9AADDF
:101900009EAF8DAF8DAD9EAD0197F1F79EAF8DAFC0
:1019100088E290E028E230E0F90120812B7FFC0191
:10192000208380E090E0A0E8BFE3898F9A8FAB8F9F
:10193000BC8F26E636E646E655E4698D7A8D8B8DBA
:101940009C8D02D6DC01CB018BA79CA7ADA7BEA7BF
:1019500020E030E040E85FE36BA57CA58DA59EA567
:10196000A5D488232CF481E090E098AB8FA73BC0EE
:1019700020E03FEF4FE757E46BA57CA58DA59EA522
:10198000DFD518163CF520E030E040E251E4698DE7
:101990007A8D8B8D9C8DD8D5DC01CB01BC01CD011E
:1019A000F1D4DC01CB0198AB8FA70FC080E791E0A9
:1019B0009AAB89AB89A99AA90197F1F79AAB89AB40
:1019C0008FA598A9019798AB8FA78FA598A9892B68
:1019D00069F713C06BA57CA58DA59EA5D3D4DC01AA
:1019E000CB0198AB8FA78FA598A99CAB8BAB8BA98C
:1019F0009CA90197F1F79CAB8BAB88E290E028E2C1
:101A000030E0F90120812E7FFC01208388E290E004
:101A100028E230E0F90120812D7FFC01208388E25B
:101A200090E020E2FC01208388E290E028E230E0B0
:101A3000F90120812460FC01208380E090E0A0EA8D
:101A4000B0E48D8F9E8FAF8FB8A326E636E646E6CC
:101A500055E46D8D7E8D8F8D98A176D5DC01CB01FF
:101A600089A39AA3ABA3BCA320E030E040E85FE3E6
:101A700069A17AA18BA19CA119D488232CF481E0BF
:101A800090E09EA38DA33BC020E03FEF4FE757E4DB
:101A900069A17AA18BA19CA153D518163CF520E031
:101AA00030E040E251E46D8D7E8D8F8D98A14CD554
:101AB000DC01CB01BC01CD0165D4DC01CB019EA3CF
:101AC0008DA30FC080E791E098A78FA38FA198A561
:101AD0000197F1F798A78FA38DA19EA101979EA3CF
:101AE0008DA38DA19EA1892B69F713C069A17AA14D
:101AF0008BA19CA147D4DC01CB019EA38DA38DA11A
:101B00009EA19AA789A789A59AA50197F1F79AA7F7
:101B100089A788E290E028E230E0F90120812B7F5C
:101B2000FC0120830000C059DF4F0FB6F894DEBFE0
:101B30000FBECDBFDF91CF911F910F910895CF932D
:101B4000DF93CDB7DEB76E970FB6F894DEBF0FBE4A
:101B5000CDBF8E8F8E8D89838981807F898388E236
:101B600090E028E230E0F90120812F70FC01208311
:101B700088E290E028E230E0F90130812981232BCE
:101B8000FC01208388E290E028E230E0F901208126
:101B90002E7FFC01208388E290E028E230E0F9010A
:101BA00020812D7FFC01208388E290E028E230E054
:101BB000F90120812460FC01208380E090E0A0EA0C
:101BC000B0E48A839B83AC83BD8326E636E646E693
:101BD00055E46A817B818C819D81B6D4DC01CB0187
:101BE0008C8B9D8BAE8BBF8B20E030E040E85FE3B9
:101BF0006C897D898E899F8959D388232CF481E053
:101C000090E0998F888F3BC020E03FEF4FE757E48B
:101C10006C897D898E899F8993D418163CF520E0C4
:101C200030E040E251E46A817B818C819D818CD4DB
:101C3000DC01CB01BC01CD01A5D3DC01CB01998F27
:101C4000888F0FC080E791E09B8F8A8F8A8D9B8D54
:101C50000197F1F79B8F8A8F888D998D0197998FC6
:101C6000888F888D998D892B69F713C06C897D8940
:101C70008E899F8987D3DC01CB01998F888F888DCE
:101C8000998D9D8F8C8F8C8D9D8D0197F1F79D8FF8
:101C90008C8F88E290E028E230E0F90120812B7FF0
:101CA000FC0120838E8D8F708E8F8E8D8295807F2C
:101CB0008E8F88E290E028E230E0F90120812F70D9
:101CC000FC01208388E290E028E230E0F9013081D5
:101CD0002E8D232BFC01208388E290E028E230E067
:101CE000F90120812E7FFC01208388E290E028E228
:101CF00030E0F90120812D7FFC01208388E290E013
:101D000028E230E0F90120812460FC01208380E09A
:101D100090E0A0EAB0E48E839F83A887B98726E687
:101D200036E646E655E46E817F81888599850CD438
:101D3000DC01CB018A879B87AC87BD8720E030E040
:101D400040E85FE36A857B858C859D85AFD28823DB
:101D50002CF481E090E09F878E873BC020E03FEF2E
:101D60004FE757E46A857B858C859D85E9D31816F6
:101D70003CF520E030E040E251E46E817F818885CF
:101D80009985E2D3DC01CB01BC01CD01FBD2DC01A2
:101D9000CB019F878E870FC080E791E0998B888B5E
:101DA000888999890197F1F7998B888B8E859F8512
:101DB00001979F878E878E859F85892B69F713C032
:101DC0006A857B858C859D85DDD2DC01CB019F8773
:101DD0008E878E859F859B8B8A8B8A899B890197AD
:101DE000F1F79B8B8A8B88E290E028E230E0F901E2
:101DF00020812B7FFC01208300006E960FB6F894A3
:101E0000DEBF0FBECDBFDF91CF910895CF93DF939B
:101E1000CDB7DEB72E970FB6F894DEBF0FBECDBF9D
:101E200006D980E090E0A0E8BFE389839A83AB8382
:101E3000BC8326E636E646E655E469817A818B81E5
:101E40009C8182D3DC01CB018D839E83AF83B887D5
:101E500020E030E040E85FE36D817E818F819885EE
:101E600025D288232CF481E090E09A8789873BC0B3
:101E700020E03FEF4FE757E46D817E818F819885A9
:101E80005FD318163CF520E030E040E251E4698170
:101E90007A818B819C8158D3DC01CB01BC01CD01BF
:101EA00071D2DC01CB019A8789870FC080E791E06E
:101EB0009C878B878B859C850197F1F79C878B8707
:101EC00089859A8501979A87898789859A85892B3B
:101ED00069F713C06D817E818F81988553D2DC01B3
:101EE000CB019A87898789859A859E878D878D857D
:101EF0009E850197F1F79E878D8788E220DE81E03D
:101F00001EDE86E01CDE8EE01ADE80E818DE0000B1
:101F10002E960FB6F894DEBF0FBECDBFDF91CF91E6
:101F20000895CF93DF931F921F92CDB7DEB78983B9
:101F30006A838981882F90E08230910581F0833017
:101F400091051CF4019739F016C08330910559F0C2
:101F5000049769F010C08A818158F1DD0CC08A8134
:101F60008154EDDD08C08A818D56E9DD04C08A8187
:101F70008D52E5DD000000000F900F90DF91CF91B2
:101F80000895CF93DF93CDB7DEB7A0970FB6F8943F
:101F9000DEBF0FBECDBF8E8F6F8F48A36F8D8E8D2E
:101FA000C0DF88A189838981807F898388E290E06E
:101FB00028E230E0F90120812F70FC01208388E2C3
:101FC00090E028E230E0F90130812981232BFC01E7
:101FD000208388E290E028E230E0F901208121604E
:101FE000FC01208388E290E028E230E0F9012081C2
:101FF0002D7FFC01208388E290E028E230E0F901A7
:1020000020812460FC01208380E090E0A0EAB0E41D
:102010008A839B83AC83BD8326E636E646E655E499
:102020006A817B818C819D818FD2DC01CB018C8B7D
:102030009D8BAE8BBF8B20E030E040E85FE36C8986
:102040007D898E899F8932D188232CF481E090E0AC
:10205000998F888F3BC020E03FEF4FE757E46C89B2
:102060007D898E899F896CD218163CF520E030E07E
:1020700040E251E46A817B818C819D8165D2DC01E3
:10208000CB01BC01CD017ED1DC01CB01998F888FC2
:102090000FC080E791E09B8F8A8F8A8D9B8D01977F
:1020A000F1F79B8F8A8F888D998D0197998F888FF3
:1020B000888D998D892B69F713C06C897D898E89EC
:1020C0009F8960D1DC01CB01998F888F888D998D94
:1020D0009D8F8C8F8C8D9D8D0197F1F79D8F8C8FAF
:1020E00088E290E028E230E0F90120812B7FFC01BA
:1020F000208388A18F7088A388A18295807F88A380
:1021000088E290E028E230E0F90120812F70FC01A4
:10211000208388E290E028E230E0F901308128A1B4
:10212000232BFC01208388E290E028E230E0F901D3
:1021300020812160FC01208388E290E028E230E0E9
:10214000F90120812D7FFC01208388E290E028E2C4
:1021500030E0F90120812460FC01208380E090E0E0
:10216000A0EAB0E48E839F83A887B98726E636E687
:1021700046E655E46E817F8188859985E5D1DC014D
:10218000CB018A879B87AC87BD8720E030E040E8A1
:102190005FE36A857B858C859D8588D088232CF4B8
:1021A00081E090E09F878E873BC020E03FEF4FE7C4
:1021B00057E46A857B858C859D85C2D118163CF5D0
:1021C00020E030E040E251E46E817F81888599858E
:1021D000BBD1DC01CB01BC01CD01D4D0DC01CB01F2
:1021E0009F878E870FC080E791E0998B888B8889C5
:1021F00099890197F1F7998B888B8E859F85019737
:102200009F878E878E859F85892B69F713C06A8586
:102210007B858C859D85B6D0DC01CB019F878E8721
:102220008E859F859B8B8A8B8A899B890197F1F785
:102230009B8B8A8B88E290E028E230E0F9012081D4
:102240002B7FFC0120830000A0960FB6F894DEBF20
:102250000FBECDBFDF91CF910895CF93DF9300D014
:102260001F92CDB7DEB789836A835C834B8310C02E
:102270008B819C81FC018081482F6A81898181DE6C
:102280008B819C8101969C838B838A818F5F8A835B
:102290008B819C81FC018081882351F700000F9085
:1022A0000F900F900F90DF91CF910895D4D008F444
:1022B00081E008950CD00AC102D140F0F9D030F08D
:1022C00021F45F3F19F0EBC0511134C1EEC00FD1C2
:1022D00098F39923C9F35523B1F3951B550BBB27ED
:1022E000AA2762177307840738F09F5F5F4F220F9A
:1022F000331F441FAA1FA9F333D00E2E3AF0E0E893
:1023000030D091505040E695001CCAF729D0FE2FDE
:1023100027D0660F771F881FBB1F26173707480770
:10232000AB07B0E809F0BB0B802DBF01FF27935826
:102330005F4F2AF09E3F510568F0B1C0FBC05F3F80
:10234000ECF3983EDCF3869577956795B795F7950E
:102350009F5FC9F7880F911D9695879597F9089506
:10236000E1E0660F771F881FBB1F621773078407A2
:10237000BA0720F0621B730B840BBA0BEE1F88F7B1
:10238000E0950895BCD088F09F5790F0B92F992719
:10239000B751A0F0D1F0660F771F881F991F1AF070
:1023A000BA95C9F712C0B13081F0C3D0B1E0089539
:1023B000C0C0672F782F8827B85F39F0B93FCCF3BA
:1023C000869577956795B395D9F73EF49095809566
:1023D000709561957F4F8F4F9F4F0895E89409C086
:1023E00097FB3EF490958095709561957F4F8F4F48
:1023F0009F4F9923A9F0F92F96E9BB279395F6955E
:10240000879577956795B795F111F8CFFAF4BB0FDB
:1024100011F460FF1BC06F5F7F4F8F4F9F4F16C03F
:10242000882311F096E911C0772321F09EE8872FC9
:10243000762F05C0662371F096E8862F70E060E085
:102440002AF09A95660F771F881FDAF7880F9695FE
:10245000879597F90895990F0008550FAA0BE0E8A2
:10246000FEEF16161706E807F907C0F01216130656
:10247000E407F50798F0621B730B840B950B39F496
:102480000A2661F0232B242B252B21F408950A26FC
:1024900009F4A140A6958FEF811D811D089597F93C
:1024A0009F6780E870E060E008959FEF80EC0895FA
:1024B00000240A9416161706180609060895002423
:1024C0000A9412161306140605060895092E03949D
:1024D000000C11F4882352F0BB0F40F4BF2B11F411
:1024E00060FF04C06F5F7F4F8F4F9F4F089557FD70
:1024F0009058440F551F59F05F3F71F04795880F72
:1025000097FB991F61F09F3F79F087950895121608
:1025100013061406551FF2CF4695F1DF08C01616B4
:1025200017061806991FF1CF869571056105089465
:102530000895E894BB2766277727CB0197F908957C
:102540008ADF08F48FEF08950BD0C0CFB1DF28F0F9
:10255000B6DF18F0952309F0A2CFA7CF1124EACF58
:10256000C6DFA0F3959FD1F3950F50E0551F629FF2
:10257000F001729FBB27F00DB11D639FAA27F00DDC
:10258000B11DAA1F649F6627B00DA11D661F829F03
:102590002227B00DA11D621F739FB00DA11D621FE8
:1025A000839FA00D611D221F749F3327A00D611D05
:1025B000231F849F600D211D822F762F6A2F1124E7
:1025C0009F5750408AF0E1F088234AF0EE0FFF1F3A
:1025D000BB1F661F771F881F91505040A9F79E3F71
:1025E000510570F05CCFA6CF5F3FECF3983EDCF373
:1025F000869577956795B795F795E7959F5FC1F7AE
:10260000FE2B880F911D9695879597F90895F8945C
:02261000FFCFFA
:1026120033313231323031303131303130300033D8
:10262200304E00020102434F3A0043503A004E50EE
:062632003A004E4F3A0091
:00000001FF
