S0250000355F506F736974696F6E5F436F6E74726F6C5F496E74657272757074732E7372656337
S113000071C000008FC000008DC000008BC00000D4
S113001089C000001AC50000EAC4000083C00000C3
S113002081C000007FC000007DC000007BC00000D4
S113003079C0000077C0000075C0000073C00000E4
S113004071C000006FC000006DC000006BC00000F4
S113005069C0000067C0000065C0000063C0000004
S113006061C000005FC000005DC000005BC0000014
S113007059C0000057C0000055C0000053C0000024
S113008051C000004FC000004DC000004BC0000034
S113009049C0000047C0000045C0000043C0000044
S11300A041C000003FC000003DC000003BC0000054
S11300B039C0000037C0000035C0000033C0000064
S11300C031C000002FC000002DC000002BC0000074
S11300D029C0000027C0000025C0000023C0000084
S11300E021C0000011241FBECFEFD1E2DEBFCDBF7F
S11300F000E00CBF12E0A0E0B2E0EEEEF4E200E0BB
S11301000BBF02C007900D92A031B107D9F722E0CE
S1130110A0E1B2E001C01D92A632B207E1F7F8D126
S11301200C9475126DCFCF93DF93CDB7DEB78AE70A
S113013090E02AE730E0F90120812668FC01208361
S11301408AE790E02AE730E0F90120812678FC0173
S113015020838BE790E02BE730E0F9012081207BBE
S1130160FC0120838CE790E02CE730E0F90120814A
S11301702076FC0120838CE790E02CE730E0F90145
S113018020812064FC0120838CE790E02CE730E0A0
S1130190F90120812062FC01208380E590E020E5C4
S11301A030E0F90120812068FC0120830000DF9108
S11301B0CF910895CF93DF931F921F92CDB7DEB7EF
S11301C08A838A81883048F08BE790E02BE730E01F
S11301D0F90120812860FC0120838A8187708A8349
S11301E08CE790E02CE730E0F90130812A81232B61
S11301F0FC0120838AE790E02AE730E0F9012081BE
S11302002064FC01208300008AE790E0FC018081E7
S1130210882F90E080719927892BB1F389E790E0CA
S1130220FC01808189838AE790E02AE730E0F901C4
S113023020812061FC0120838BE790E02BE730E0F4
S1130240F9012081277FFC0120838CE790E02CE7D3
S113025030E0F9012081207EFC01208389810F9008
S11302600F90DF91CF910895CF93DF93CDB7DEB791
S113027080E390E0FC01108281E390E0FC011082B5
S113028087E091E0FC01108288E091E0FC0110829B
S11302900000DF91CF910895CF93DF93CDB7DEB700
S11302A061970FB6F894DEBF0FBECDBF8F87688B02
S11302B0498B109219028F85833378F088898333B0
S11302C060F08989833348F060E080E003D281E004
S11302D08093190281E0809318028F85823378F02D
S11302E080911802882359F480911902882339F4E3
S11302F02ED264EB80E5EED181E0809319028989E6
S1130300823378F080911802882359F4809119027D
S1130310882339F41CD260E584EBDCD181E080933E
S113032019028889823378F080911802882359F45D
S113033080911902882339F40AD264ED88ECCAD179
S113034081E08093190280911802882309F4D1C0B6
S11303501092180201D480E090E0AAE7B4E4898303
S11303609A83AB83BC8326E636E646E655E4698188
S11303707A818B819C810E94DC11DC01CB018D830D
S11303809E83AF83B88720E030E040E85FE36D816F
S11303907E818F8198850E948E1088232CF481E0C1
S11303A090E09A8789873FC020E03FEF4FE757E40A
S11303B06D817E818F8198850E94D81118164CF525
S11303C020E030E040E251E469817A818B819C81B4
S11303D00E94DC11DC01CB01BC01CD010E94FA10AA
S11303E0DC01CB019A8789870FC080E791E09C8765
S11303F08B878B859C850197F1F79C878B878985F3
S11304009A8501979A87898789859A85892B69F7BF
S113041014C06D817E818F8198850E94FA10DC0161
S1130420CB019A87898789859A859E878D878D8553
S11304309E850197F1F79E878D879FD385E091E094
S113044020E8FC0120838091000290910102019632
S11304509093010280930002809100029091010226
S113046008970CF04BC042E052E061E081E00E944A
S1130470240F8091000290910102019622E030E065
S1130480AC0161E082E00E944D0F809100029091E6
S113049001028330910599F0843091051CF4892B75
S11304A039F022C08430910589F00797B1F01CC05F
S11304B081E490E0F8D28AE590E01FD31FC081E484
S11304C090E0F1D28AE590E003D318C081E490E093
S11304D0EAD28AE590E0FCD211C081E490E0E3D254
S11304E08AE590E0F5D20AC081E490E0DCD2000015
S11304F005C085E091E0FC01108200C00000619617
S11305000FB6F894DEBF0FBECDBFDF91CF91089533
S1130510CF93DF9300D0CDB7DEB719821A821B8246
S11305203DD30E94F30C18D031D04AD0EBD09CDEDE
S1130530FADD60D068EC88ECCDD0F4D283E03ADE0A
S11305408B8382E037DE8A8381E034DE89834981CC
S11305506A818B81A1DEF2CFCF93DF93CDB7DEB773
S113056081E290E021E230E0F90120812F60FC017A
S1130570208382E290E022E230E0F9012081207FB2
S1130580FC0120830000DF91CF910895CF93DF9386
S1130590CDB7DEB78AE091E02AE031E0F9012081AD
S11305A02861FC0120838BE091E02BE031E0F9012C
S11305B020812861FC0120830000DF91CF91089500
S11305C0CF93DF93CDB7DEB78DE290E02DE230E03C
S11305D0F90120812F7CFC0120838EE290E02EE241
S11305E030E0F90120812063FC0120830000DF91C9
S11305F0CF910895CF93DF93CDB7DEB781E291E039
S1130600FC01108285E291E02FEFFC01208384E25B
S113061091E021E0FC01208389E291E0FC01108259
S113062088E291E02FEFFC0120838BE291E0FC0152
S113063010828AE291E02FEFFC01208380E291E0B6
S113064020E231E0F9012081206AFC01208380E26C
S113065091E020E231E0F90120812F7AFC0120832E
S113066080E291E020E231E0F90120812160FC0187
S1130670208380E291E020E231E0F90120812D7FA6
S1130680FC01208381E291E021E231E0F901208143
S11306902860FC01208381E291E021E231E0F9014C
S11306A020812F7EFC01208381E291E021E231E070
S11306B0F90120812360FC01208381E291E021E2A1
S11306C031E0F90120812B7FFC0120830000DF91C0
S11306D0CF910895CF93DF931F921F92CDB7DEB7CA
S11306E089836A8388E291E02981FC0120838AE27C
S11306F091E02A81FC01208300000F900F90DF918C
S1130700CF910895CF93DF93CDB7DEB7F8948DE3FF
S113071090E02DE330E0F90120812063FC01208387
S11307208AE690E02AE630E0F90120812A60FC01A3
S113073020838AE690E02AE630E0F90120812A7FCE
S1130740FC01208378940000DF91CF910895CF932A
S1130750DF93CDB7DEB782E290E022E230E0F90128
S11307602081267FFC01208382E290E022E230E0B7
S1130770F90120812660FC0120830000DF91CF91E4
S11307800895CF93DF93CDB7DEB782E290E022E203
S113079030E0F9012081257FFC01208382E290E092
S11307A022E230E0F90120812560FC012083000071
S11307B0DF91CF910895CF93DF93CDB7DEB782E277
S11307C090E022E230E0F90120812A7FFC012083BD
S11307D082E290E022E230E0F90120812A60FC010B
S11307E020830000DF91CF910895CF93DF93CDB79D
S11307F0DEB782E290E022E230E0F9012081207F3E
S1130800FC0120830000DF91CF910895CF93DF9303
S1130810CDB7DEB72A970FB6F894DEBF0FBECDBFB3
S11308209A87898719821A821B821C821D821E82E2
S11308301F82188689859A85CC01A0E0B0E0BC01AE
S1130840CD010E942611DC01CB0128E431EE42E8FF
S113085050E4BC01CD010E949210DC01CB018983DC
S11308609A83AB83BC8369817A818B819C810E944A
S1130870FA10DC01CB01CC01A0E0B0E08D839E83B3
S1130880AF83B887109214021092150210921602C8
S1130890109217021092100210921102109212027A
S11308A01092130220911402309115024091160205
S11308B0509117028D819E81AF81B8852817390721
S11308C04A075B0790F42091100230911102409185
S11308D01202509113028D819E81AF81B885281731
S11308E039074A075B0708F4DDCF7FDF00002A964B
S11308F00FB6F894DEBF0FBECDBFDF91CF91089540
S1130900CF93DF93CDB7DEB72A970FB6F894DEBF47
S11309100FBECDBF9A87898719821A821B821C82D7
S11309201D821E821F82188689859A85CC01A0E0CB
S1130930B0E0BC01CD010E942611DC01CB0125EE03
S113094030ED4AEA50E4BC01CD010E949210DC0172
S1130950CB0189839A83AB83BC8369817A818B8140
S11309609C810E94FA10DC01CB018D839E83AF83AE
S1130970B887109214021092150210921602109267
S11309801702109210021092110210921202109289
S113099013022091140230911502409116025091D5
S11309A017028D819E81AF81B885281739074A07C0
S11309B05B0790F4209110023091110240911202D1
S11309C0509113028D819E81AF81B8852817390714
S11309D04A075B0708F4DDCF08DF00002A960FB64C
S11309E0F894DEBF0FBECDBFDF91CF9108951F9263
S11309F00F9200905F000F9211248F939F93AF93F7
S1130A00BF93CF93DF93CDB7DEB78091140290915B
S1130A101502A0911602B09117020196A11DB11DF5
S1130A208093140290931502A0931602B0931702B8
S1130A300000DF91CF91BF91AF919F918F910F9063
S1130A4000925F000F901F9018951F920F920090D4
S1130A505F000F9211248F939F93AF93BF93CF9313
S1130A60DF93CDB7DEB78091100290911102A0916F
S1130A701202B09113020196A11DB11D80931002C0
S1130A8090931102A0931202B09313020000DF911D
S1130A90CF91BF91AF919F918F910F9000925F0082
S1130AA00F901F901895CF93DF931F921F92CDB78D
S1130AB0DEB79A83898364ED88EC0CDE48DE898195
S1130AC09A811EDF00000F900F90DF91CF9108955F
S1130AD0CF93DF931F921F92CDB7DEB79A8389839A
S1130AE064ED88ECF7DD4DDE89819A818FDE0000AC
S1130AF00F900F90DF91CF910895CF93DF931F92C2
S1130B001F92CDB7DEB79A83898364ED88ECE2DD6A
S1130B1052DE89819A817ADE00000F900F90DF9176
S1130B20CF910895CF93DF93CDB7DEB787E290E0FE
S1130B3027E230E0F90120812860FC01208388E26B
S1130B4090E028E230E0F9012081277FFC01208336
S1130B500000DF91CF910895CF93DF93CDB7DEB737
S1130B6088E290E028E230E0F90120812860FC016D
S1130B7020830000DF91CF910895CF93DF93CDB709
S1130B80DEB788E290E028E230E0F9012081277F97
S1130B90FC0120830000DF91CF910895CF93DF9370
S1130BA0CDB7DEB787E290E027E230E0F90120819B
S1130BB02760FC01208387E290E027E230E0F9011E
S1130BC02081206FFC01208388E290E028E230E05D
S1130BD0F9012081287FFC01208388E290E028E24B
S1130BE030E0F90120812F70FC0120830000DF91A7
S1130BF0CF9108950F931F93CF93DF93CDB7DEB7B3
S1130C00C057D1090FB6F894DEBF0FBECDBF80E048
S1130C1090E0A0E8BFE389839A83AB83BC838E0111
S1130C2009591F4F26E636E646E655E469817A817E
S1130C308B819C810E94DC11DC01CB01F801808353
S1130C409183A283B383CE0189599F4F20E030E082
S1130C5040E85FE3FC0160817181828193810E949D
S1130C608E1088234CF4CE0185599F4F21E030E04B
S1130C70FC013183208369C0CE0189599F4F20E054
S1130C803FEF4FE757E4FC016081718182819381DA
S1130C900E94D81118160CF046C020E030E040E263
S1130CA051E469817A818B819C810E94DC11DC0191
S1130CB0CB018E0105591F4FBC01CD010E94FA10D2
S1130CC0DC01CB01F8019183808324C0CE018359D8
S1130CD09F4F20E731E0FC0131832083CE0183590B
S1130CE09F4FFC01808191810197F1F79E01235967
S1130CF03F4FF90191838083CE0185599F4F9E0117
S1130D0025593F4FF9012081318121503109FC01DE
S1130D1031832083CE0185599F4FFC0180819181CD
S1130D20892BA1F62CC08E0105591F4FCE0189597C
S1130D309F4FFC0160817181828193810E94FA102E
S1130D40DC01CB01F80191838083CE0181599F4F4F
S1130D509E0125593F4FF90120813181FC013183E6
S1130D602083CE0181599F4FFC018081918101979D
S1130D70F1F79E0121593F4FF9019183808388E265
S1130D8090E028E230E0F90120812E7FFC012083ED
S1130D9088E290E028E230E0F90120812D7FFC0117
S1130DA0208388E290E020E3FC01208388E290E045
S1130DB028E230E0F90120812460FC01208380E0F6
S1130DC090E0A0EAB0E48D839E83AF83B8878E0160
S1130DD0035A1F4F26E636E646E655E46D817E81CA
S1130DE08F8198850E94DC11DC01CB01F80180839E
S1130DF09183A283B383CE01835A9F4F20E030E0D6
S1130E0040E85FE3FC0160817181828193810E94EB
S1130E108E1088234CF4CE018F599F4F21E030E08F
S1130E20FC013183208369C0CE01835A9F4F20E0A7
S1130E303FEF4FE757E4FC01608171818281938128
S1130E400E94D81118160CF046C020E030E040E2B1
S1130E5051E46D817E818F8198850E94DC11DC01D3
S1130E60CB018E010F591F4FBC01CD010E94FA1016
S1130E70DC01CB01F8019183808324C0CE018D591C
S1130E809F4F20E731E0FC0131832083CE018D594F
S1130E909F4FFC01808191810197F1F79E012D59AB
S1130EA03F4FF90191838083CE018F599F4F9E015B
S1130EB02F593F4FF9012081318121503109FC0123
S1130EC031832083CE018F599F4FFC018081918112
S1130ED0892BA1F62CC08E010F591F4FCE01835AC6
S1130EE09F4FFC0160817181828193810E94FA107D
S1130EF0DC01CB01F80191838083CE018B599F4F94
S1130F009E012F593F4FF90120813181FC0131832A
S1130F102083CE018B599F4FFC01808191810197E1
S1130F20F1F79E012B593F4FF9019183808388E2A9
S1130F3090E028E230E0F90120812B7FFC0120833E
S1130F4080E090E0A0E8BFE389879A87AB87BC87FD
S1130F508E010D5A1F4F26E636E646E655E46985AE
S1130F607A858B859C850E94DC11DC01CB01F8011C
S1130F7080839183A283B383CE018D5A9F4F20E057
S1130F8030E040E85FE3FC016081718182819381FC
S1130F900E948E1088234CF4CE01895A9F4F21E081
S1130FA030E0FC013183208369C0CE018D5A9F4F0C
S1130FB020E03FEF4FE757E4FC01608171818281BB
S1130FC093810E94D81118160CF046C020E030E03E
S1130FD040E251E469857A858B859C850E94DC1109
S1130FE0DC01CB018E01095A1F4FBC01CD010E94C7
S1130FF0FA10DC01CB01F8019183808324C0CE0177
S1131000875A9F4F20E731E0FC0131832083CE01D2
S1131010875A9F4FFC01808191810197F1F79E01CE
S1131020275A3F4FF90191838083CE01895A9F4FFC
S11310309E01295A3F4FF901208131812150310904
S1131040FC0131832083CE01895A9F4FFC018081AA
S11310509181892BA1F62CC08E01095A1F4FCE0114
S11310608D5A9F4FFC0160817181828193810E941E
S1131070FA10DC01CB01F80191838083CE01855AFB
S11310809F4F9E01295A3F4FF90120813181FC0174
S113109031832083CE01855A9F4FFC018081918149
S11310A00197F1F79E01255A3F4FF90191838083FF
S11310B088E290E028E230E0F90120812E7FFC01F3
S11310C0208388E290E028E230E0F90120812D7F3E
S11310D0FC01208388E290E020E3FC01208388E285
S11310E090E028E230E0F90120812460FC012083B3
S11310F080E090E0A0EAB0E48D879E87AF87B88B4C
S11311008E01075B1F4F26E636E646E655E46D85FD
S11311107E858F8598890E94DC11DC01CB01F80162
S113112080839183A283B383CE01875B9F4F20E0AA
S113113030E040E85FE3FC0160817181828193814A
S1131140EDD788234CF4CE01835B9F4F21E030E040
S1131150FC013183208368C0CE01875B9F4F20E070
S11311603FEF4FE757E4FC016081718182819381F5
S11311700E94D81118160CF046C020E030E040E27E
S113118051E46D857E858F8598890E94DC11DC0190
S1131190CB018E01035B1F4FBC01CD010E94FA10ED
S11311A0DC01CB01F8019183808324C0CE01815BF3
S11311B09F4F20E731E0FC0131832083CE01815B26
S11311C09F4FFC01808191810197F1F79E01215B82
S11311D03F4FF90191838083CE01835B9F4F9E0132
S11311E0235B3F4FF9012081318121503109FC01FA
S11311F031832083CE01835B9F4FFC0180819181E9
S1131200892BA1F62BC08E01035B1F4FCE01875B98
S11312109F4FFC016081718182819381EBD7DC0156
S1131220CB01F80191838083CE018F5A9F4F9E0199
S1131230235B3F4FF90120813181FC0131832083FD
S1131240CE018F5A9F4FFC01808191810197F1F764
S11312509E012F5A3F4FF9019183808388E290E0E9
S113126028E230E0F90120812B7FFC01208380E01B
S113127090E0A0E8BFE3898B9A8BAB8BBC8B8E018B
S1131280015C1F4F26E636E646E655E469897A890D
S11312908B899C890E94DC11DC01CB01F8018083DD
S11312A09183A283B383CE01CF9620E030E040E85F
S11312B05FE3FC0160817181828193812FD7882350
S11312C04CF4CE018D5B9F4F21E030E0FC01318373
S11312D0208365C0CE01CF9620E03FEF4FE757E46F
S11312E0FC0160817181828193810E94D81118165A
S11312F00CF045C020E030E040E251E469897A898D
S11313008B899C890E94DC11DC01CB018E010D5B71
S11313101F4FBC01CD016ED7DC01CB01F8019183D5
S1131320808324C0CE018B5B9F4F20E731E0FC011A
S113133031832083CE018B5B9F4FFC01808191819F
S11313400197F1F79E012B5B3F4FF9019183808355
S1131350CE018D5B9F4F9E012D5B3F4FF901208194
S1131360318121503109FC0131832083CE018D5B11
S11313709F4FFC0180819181892BA1F62AC08E01A7
S11313800D5B1F4FCE01CF96FC016081718182817C
S1131390938130D7DC01CB01F80191838083CE01A6
S11313A0895B9F4F9E012D5B3F4FF9012081318165
S11313B0FC0131832083CE01895B9F4FFC01808136
S11313C091810197F1F79E01295B3F4FF9019183C8
S11313D0808388E290E028E230E0F90120812E7FCA
S11313E0FC01208388E290E028E230E0F9012081CA
S11313F02D7FFC01208388E290E020E3FC01208320
S113140088E290E028E230E0F90120812460FC01C8
S1131410208380E090E0A0EAB0E48D8B9E8BAF8BBC
S1131420B88F26E636E646E655E46D897E898F89CF
S1131430988DC2D7DC01CB018DAB9EABAFABB8AFFF
S113144020E030E040E85FE36DA97EA98FA998AD64
S113145065D688232CF481E090E09AAF89AF3BC035
S113146020E03FEF4FE757E46DA97EA98FA998AD1F
S11314709FD718163CF520E030E040E251E46D8936
S11314807E898F89988D98D7DC01CB01BC01CD0171
S1131490B1D6DC01CB019AAF89AF0FC080E791E0F0
S11314A09CAF8BAF8BAD9CAD0197F1F79CAF8BAF2D
S11314B089AD9AAD01979AAF89AF89AD9AAD892B61
S11314C069F713C06DA97EA98FA998AD93D6DC01E5
S11314D0CB019AAF89AF89AD9AAD9EAF8DAF8DAD7B
S11314E09EAD0197F1F79EAF8DAF88E290E028E2C0
S11314F030E0F90120812B7FFC01208380E090E023
S1131500A0E8BFE3898F9A8FAB8FBC8F26E636E6BF
S113151046E655E4698D7A8D8B8D9C8D4DD7DC0123
S1131520CB018BA79CA7ADA7BEA720E030E040E885
S11315305FE36BA57CA58DA59EA5F0D588232CF42F
S113154081E090E098AB8FA73BC020E03FEF4FE7EE
S113155057E46BA57CA58DA59EA52AD718163CF546
S113156020E030E040E251E4698D7A8D8B8D9C8DD2
S113157023D7DC01CB01BC01CD013CD6DC01CB017E
S113158098AB8FA70FC080E791E09AAB89AB89A98C
S11315909AA90197F1F79AAB89AB8FA598A90197FE
S11315A098AB8FA78FA598A9892B69F713C06BA552
S11315B07CA58DA59EA51ED6DC01CB0198AB8FA77B
S11315C08FA598A99CAB8BAB8BA99CA90197F1F72C
S11315D09CAB8BAB88E290E028E230E0F9012081FB
S11315E02E7FFC01208388E290E028E230E0F901BC
S11315F020812D7FFC01208388E290E020E2FC0121
S1131600208388E290E028E230E0F9012081246020
S1131610FC01208380E090E0A0EAB0E48D8F9E8FEF
S1131620AF8FB8A326E636E646E655E46D8D7E8D8B
S11316308F8D98A1C1D6DC01CB0189A39AA3ABA35A
S1131640BCA320E030E040E85FE369A17AA18BA16C
S11316509CA164D588232CF481E090E09EA38DA303
S11316603BC020E03FEF4FE757E469A17AA18BA18B
S11316709CA19ED618163CF520E030E040E251E4EF
S11316806D8D7E8D8F8D98A197D6DC01CB01BC0129
S1131690CD01B0D5DC01CB019EA38DA30FC080E7A3
S11316A091E098A78FA38FA198A50197F1F798A728
S11316B08FA38DA19EA101979EA38DA38DA19EA111
S11316C0892B69F713C069A17AA18BA19CA192D53A
S11316D0DC01CB019EA38DA38DA19EA19AA789A70E
S11316E089A59AA50197F1F79AA789A788E290E0BE
S11316F028E230E0F90120812B7FFC0120830000E7
S1131700C059DF4F0FB6F894DEBF0FBECDBFDF91D7
S1131710CF911F910F910895CF93DF93CDB7DEB78B
S11317206E970FB6F894DEBF0FBECDBF8E8F8E8D31
S113173089838981807F898388E290E028E230E090
S1131740F90120812F70FC01208388E290E028E2D7
S113175030E0F90130812981232BFC01208388E2C8
S113176090E028E230E0F90120812E7FFC01208303
S113177088E290E028E230E0F90120812D7FFC012D
S1131780208388E290E028E230E0F901208124609F
S1131790FC01208380E090E0A0EAB0E48A839B838C
S11317A0AC83BD8326E636E646E655E46A817B8152
S11317B08C819D8101D6DC01CB018C8B9D8BAE8B02
S11317C0BF8B20E030E040E85FE36C897D898E893F
S11317D09F89A4D488232CF481E090E0998F888F8A
S11317E03BC020E03FEF4FE757E46C897D898E8949
S11317F09F89DED518163CF520E030E040E251E444
S11318006A817B818C819D81D7D5DC01CB01BC01B0
S1131810CD01F0D4DC01CB01998F888F0FC080E714
S113182091E09B8F8A8F8A8D9B8D0197F1F79B8F17
S11318308A8F888D998D0197998F888F888D998D3E
S1131840892B69F713C06C897D898E899F89D2D4CD
S1131850DC01CB01998F888F888D998D9D8F8C8F1A
S11318608C8D9D8D0197F1F79D8F8C8F88E290E090
S113187028E230E0F90120812B7FFC0120838E8D4A
S11318808F708E8F8E8D8295807F8E8F88E290E010
S113189028E230E0F90120812F70FC01208388E2E6
S11318A090E028E230E0F90130812E8D232BFC01F9
S11318B0208388E290E028E230E0F90120812E7F45
S11318C0FC01208388E290E028E230E0F9012081E5
S11318D02D7FFC01208388E290E028E230E0F901CA
S11318E020812460FC01208380E090E0A0EAB0E441
S11318F08E839F83A887B98726E636E646E655E4B5
S11319006E817F818885998557D5DC01CB018A87D3
S11319109B87AC87BD8720E030E040E85FE36A85C1
S11319207B858C859D85FAD388232CF481E090E017
S11319309F878E873BC020E03FEF4FE757E46A85DF
S11319407B858C859D8534D518163CF520E030E0E8
S113195040E251E46E817F81888599852DD5DC0133
S1131960CB01BC01CD0146D4DC01CB019F878E871E
S11319700FC080E791E0998B888B888999890197BA
S1131980F1F7998B888B8E859F8501979F878E872A
S11319908E859F85892B69F713C06A857B858C8525
S11319A09D8528D4DC01CB019F878E878E859F85FA
S11319B09B8B8A8B8A899B890197F1F79B8B8A8BF6
S11319C088E290E028E230E0F90120812B7FFC01DD
S11319D0208300006E960FB6F894DEBF0FBECDBF15
S11319E0DF91CF910895CF93DF93CDB7DEB72E97D4
S11319F00FB6F894DEBF0FBECDBFFCD880E090E0F8
S1131A00A0E8BFE389839A83AB83BC8326E636E6EA
S1131A1046E655E469817A818B819C81CDD4DC01D1
S1131A20CB018D839E83AF83B88720E030E040E80C
S1131A305FE36D817E818F81988570D388232CF438
S1131A4081E090E09A8789873BC020E03FEF4FE731
S1131A5057E46D817E818F819885AAD418163CF550
S1131A6020E030E040E251E469817A818B819C81FD
S1131A70A3D4DC01CB01BC01CD01BCD3DC01CB017F
S1131A809A8789870FC080E791E09C878B878B8535
S1131A909C850197F1F79C878B8789859A850197A7
S1131AA09A87898789859A85892B69F713C06D81FF
S1131AB07E818F8198859ED3DC01CB019A878987AB
S1131AC089859A859E878D878D859E850197F1F7F7
S1131AD09E878D8788E220DE81E01EDE86E01CDEA4
S1131AE08EE01ADE80E818DE00002E960FB6F89419
S1131AF0DEBF0FBECDBFDF91CF910895CF93DF93AB
S1131B00CDB7DEB780E808DE0000DF91CF910895FD
S1131B10CF93DF931F921F92CDB7DEB789836A8379
S1131B208981882F90E08230910581F0833091057E
S1131B301CF4019739F016C08330910559F00497CD
S1131B4069F010C08A818158E7DD0CC08A81815414
S1131B50E3DD08C08A818D56DFDD04C08A818D52A1
S1131B60DBDD000000000F900F90DF91CF9108950E
S1131B70CF93DF93CDB7DEB7A0970FB6F894DEBF4F
S1131B800FBECDBF8E8F6F8F48A36F8D8E8DC0DF3C
S1131B9088A189838981807F898388E290E028E213
S1131BA030E0F90120812F70FC01208388E290E06D
S1131BB028E230E0F90130812981232BFC012083C4
S1131BC088E290E028E230E0F90120812160FC0104
S1131BD0208388E290E028E230E0F90120812D7F23
S1131BE0FC01208388E290E028E230E0F9012081C2
S1131BF02460FC01208380E090E0A0EAB0E48A83C2
S1131C009B83AC83BD8326E636E646E655E46A81CB
S1131C107B818C819D81D0D3DC01CB018C8B9D8B0E
S1131C20AE8BBF8B20E030E040E85FE36C897D89B8
S1131C308E899F8973D288232CF481E090E0998F58
S1131C40888F3BC020E03FEF4FE757E46C897D89E4
S1131C508E899F89ADD318163CF520E030E040E230
S1131C6051E46A817B818C819D81A6D3DC01CB0107
S1131C70BC01CD01BFD2DC01CB01998F888F0FC08D
S1131C8080E791E09B8F8A8F8A8D9B8D0197F1F776
S1131C909B8F8A8F888D998D0197998F888F888DD6
S1131CA0998D892B69F713C06C897D898E899F89E9
S1131CB0A1D2DC01CB01998F888F888D998D9D8F5E
S1131CC08C8F8C8D9D8D0197F1F79D8F8C8F88E281
S1131CD090E028E230E0F90120812B7FFC01208391
S1131CE088A18F7088A388A18295807F88A388E2C9
S1131CF090E028E230E0F90120812F70FC0120837C
S1131D0088E290E028E230E0F901308128A1232B19
S1131D10FC01208388E290E028E230E0F901208190
S1131D202160FC01208388E290E028E230E0F901A0
S1131D3020812D7FFC01208388E290E028E230E0BE
S1131D40F90120812460FC01208380E090E0A0EA76
S1131D50B0E48E839F83A887B98726E636E646E6F5
S1131D6055E46E817F818885998526D3DC01CB017A
S1131D708A879B87AC87BD8720E030E040E85FE33B
S1131D806A857B858C859D85C9D188232CF481E067
S1131D9090E09F878E873BC020E03FEF4FE757E4FA
S1131DA06A857B858C859D8503D318163CF520E0D8
S1131DB030E040E251E46E817F8188859985FCD2D0
S1131DC0DC01CB01BC01CD0115D2DC01CB019F8725
S1131DD08E870FC080E791E0998B888B88899989D9
S1131DE00197F1F7998B888B8E859F8501979F8743
S1131DF08E878E859F85892B69F713C06A857B85BD
S1131E008C859D85F7D1DC01CB019F878E878E85DC
S1131E109F859B8B8A8B8A899B890197F1F79B8B82
S1131E208A8B88E290E028E230E0F90120812B7F60
S1131E30FC0120830000A0960FB6F894DEBF0FBE0D
S1131E40CDBFDF91CF910895CF93DF9300D01F9240
S1131E50CDB7DEB789836A835C834B8310C08B81E3
S1131E609C81FC018081482F6A81898181DE8B817C
S1131E709C8101969C838B838A818F5F8A838B816B
S1131E809C81FC018081882351F700000F900F9002
S1131E900F900F90DF91CF910895CF93DF93CDB73B
S1131EA0DEB727970FB6F894DEBF0FBECDBF8A8387
S1131EB06B835D834C833F832E836B818A8128DE11
S1131EC08C819D8199237CF48C819D819195819550
S1131ED091099D838C834EE052E06B818A81B4DF4B
S1131EE08B818F5F8B8319828A81882319F08B8180
S1131EF0882311F403DE03C06B818A8109DE8E819D
S1131F009F81059719F089818130C9F48C819D8165
S1131F1020E137E2B901B3D2CB01C09690931B0202
S1131F2080931A0280911A0290911B02482F6B81B0
S1131F308A811EDE8B818F5F8B8381E089838E8112
S1131F409F81049719F089818130C1F58C819D812D
S1131F5028EE33E0B90193D2CB0190931D02809314
S1131F601C0240911C0250911D029A01ADECBCEC84
S1131F7099D2969587959695879596958795880F86
S1131F80991F9C01220F331F220F331F820F931FAF
S1131F909A01281B390BC901C0969093250280939E
S1131FA024028091240290912502482F6B818A811A
S1131FB0DFDD8B818F5F8B8381E089838E819F81BD
S1131FC0039719F089818130C1F58C819D8124E6C4
S1131FD030E0B90154D2CB0190931D0280931C02CE
S1131FE040911C0250911D029A01ADECBCEC5AD2F6
S1131FF0969587959695879596958795880F991FB9
S11320009C01220F331F220F331F820F931F9A014B
S1132010281B390BC901C09690932102809320029A
S11320208091200290912102482F6B818A81A0DD4A
S11320308B818F5F8B8381E089838E819F8102975F
S113204019F089818130C1F58C819D812AE030E0CD
S1132050B90115D2CB0190931D0280931C024091CB
S11320601C0250911D029A01ADECBCEC1BD296955A
S113207087959695879596958795880F991F9C01C6
S1132080220F331F220F331F820F931F9A01281B25
S1132090390BC901C09690931F0280931E02809150
S11320A01E0290911F02482F6B818A8161DD8B8112
S11320B08F5F8B8381E089838E819F81019719F0E3
S11320C089818130B1F48C819D812AE030E0B901AD
S11320D0D6D1C0969093230280932202809122024B
S11320E090912302482F6B818A8142DD8B818F5F1F
S11320F08B838E819F8106973CF045E46B818A81B6
S113210037DD8B818F5F8B83000027960FB6F894A1
S1132110DEBF0FBECDBFDF91CF910895D4D008F4B8
S113212081E008950CD00AC102D140F0F9D030F01A
S113213021F45F3F19F0EBC0511134C1EEC00FD14F
S113214098F39923C9F35523B1F3951B550BBB277A
S1132150AA2762177307840738F09F5F5F4F220F27
S1132160331F441FAA1FA9F333D00E2E3AF0E0E820
S113217030D091505040E695001CCAF729D0FE2F6C
S113218027D0660F771F881FBB1F261737074807FE
S1132190AB07B0E809F0BB0B802DBF01FF279358B4
S11321A05F4F2AF09E3F510568F0B1C0FBC05F3F0E
S11321B0ECF3983EDCF3869577956795B795F7959C
S11321C09F5FC9F7880F911D9695879597F9089594
S11321D0E1E0660F771F881FBB1F62177307840730
S11321E0BA0720F0621B730B840BBA0BEE1F88F73F
S11321F0E0950895BCD088F09F5790F0B92F9927A7
S1132200B751A0F0D1F0660F771F881F991F1AF0FD
S1132210BA95C9F712C0B13081F0C3D0B1E00895C6
S1132220C0C0672F782F8827B85F39F0B93FCCF347
S1132230869577956795B395D9F73EF490958095F3
S1132240709561957F4F8F4F9F4F0895E89409C013
S113225097FB3EF490958095709561957F4F8F4FD5
S11322609F4F9923A9F0F92F96E9BB279395F695EB
S1132270879577956795B795F111F8CFFAF4BB0F69
S113228011F460FF1BC06F5F7F4F8F4F9F4F16C0CD
S1132290882311F096E911C0772321F09EE8872F57
S11322A0762F05C0662371F096E8862F70E060E013
S11322B02AF09A95660F771F881FDAF7880F96958C
S11322C0879597F90895990F0008550FAA0BE0E830
S11322D0FEEF16161706E807F907C0F012161306E4
S11322E0E407F50798F0621B730B840B950B39F424
S11322F00A2661F0232B242B252B21F408950A268A
S113230009F4A140A6958FEF811D811D089597F9C9
S11323109F6780E870E060E008959FEF80EC089587
S113232000240A94161617061806090608950024B0
S11323300A9412161306140605060895092E03942A
S1132340000C11F4882352F0BB0F40F4BF2B11F49E
S113235060FF04C06F5F7F4F8F4F9F4F089557FDFD
S11323609058440F551F59F05F3F71F04795880FFF
S113237097FB991F61F09F3F79F087950895121696
S113238013061406551FF2CF4695F1DF08C0161642
S113239017061806991FF1CF8695710561050894F3
S11323A00895E894BB2766277727CB0197F908950A
S11323B08ADF08F48FEF08950BD0C0CFB1DF28F087
S11323C0B6DF18F0952309F0A2CFA7CF1124EACFE6
S11323D0C6DFA0F3959FD1F3950F50E0551F629F80
S11323E0F001729FBB27F00DB11D639FAA27F00D6A
S11323F0B11DAA1F649F6627B00DA11D661F829F91
S11324002227B00DA11D621F739FB00DA11D621F75
S1132410839FA00D611D221F749F3327A00D611D92
S1132420231F849F600D211D822F762F6A2F112474
S11324309F5750408AF0E1F088234AF0EE0FFF1FC7
S1132440BB1F661F771F881F91505040A9F79E3FFE
S1132450510570F05CCFA6CF5F3FECF3983EDCF300
S1132460869577956795B795F795E7959F5FC1F73B
S1132470FE2B880F911D9695879597F9089597FBE4
S1132480072E16F4009406D077FD08D01AD007FC66
S113249005D03EF4909581959F4F08957095619570
S11324A07F4F0895A29FB001B39FC001A39F700DF9
S11324B0811D1124911DB29F700D811D1124911D48
S11324C00895AA1BBB1B51E107C0AA1FBB1FA61777
S11324D0B70710F0A61BB70B881F991F5A95A9F7C9
S11124E080959095BC01CD010895F894FFCF2E
S11324EEFEFF4E6F646520436F756E743A002D00C7
S9030000FC
